:020000040000FA
:0600000021EF1EF01200CA
:020006000000F8
:0600080044EF16F01200A7
:02000E00C69A90
:020010001200DC
:020012001200DA
:0600180061EF17F0120079
:02001E00D9CF38
:10002000E6FFE1CFD9FF82E900016051F36EF46A87
:10003000E10EF31801E1F45008E0E30EF3180BE1D0
:10004000F45009E13C0E616F07D0140E616F626BD2
:10005000EF0E006E04D0616B626B636B646B60517A
:10006000656F666B0050606F6051F36EF46AAAECC6
:1000700011F041E9E7CFD9FF1200D9CFE6FFE1CF78
:10008000D9FF85E948E8D5C0E6FFD6C0E6FFD7C06E
:10009000E6FFD8C0E6FF020EE66EE66AE66AE66AAA
:1000A00081EC0FF0E552E5CF70F1E5CF6FF1E5CFD0
:1000B0006EF1E7CF6DF101016D51096E6E510A6E5F
:1000C0006F510B6E70510C6E80EB05F081EB06F0FA
:1000D00082EB07F083EB08F00550095C06500A58E4
:1000E00007500B5808500C580EE2D950050FE96E16
:1000F000DACFEAFF0950EE5E0A50EE5A0B50EE5A84
:100100000C50EE5AE9D749E9E7CFD9FF1200D9CF11
:10011000E6FFE1CFD9FF81E950E80101A751056E63
:10012000A851066EA951076EAA51086EA551096E15
:10013000A6510A6E0B6A0C6A09EBE6FF0AEBE6FFB2
:100140000BEBE6FF0CEBE6FF05EBE6FF06EBE6FF4D
:1001500007EBE6FF08EBE6FF62EC0EF0E552E5CFB9
:1001600070F1E5CF6FF1E5CF6EF1E7CF6DF10101F1
:100170006D510D6E6E510E6E6F510F6E7051106E8F
:1001800001019751056E9851066E076A086A9951E8
:10019000096E9A510A6E0B6A0C6AE66A040EE66EE4
:1001A000E66AE66A0DEBE6FF0EEBE6FF0FEBE6FF15
:1001B00010EBE6FF81EC0FF0E552E5CF70F1E5CFF3
:1001C0006FF1E5CF6EF1E7CF6DF101016D51016E79
:1001D0006E51026E6F51036E7051046EE80EE66E42
:1001E000030EE66EE66AE66A01EBE6FF02EBE6FF67
:1001F00003EBE6FF04EBE6FF62EC0EF0E552E5CF21
:1002000070F1E5CF6FF1E5CF6EF1E7CF6DF16DC124
:10021000C9F06EC1CAF005EBE6FF06EBE6FF07EB9F
:10022000E6FF08EBE6FF3DEC0DF00DEBE6FF0EEB15
:10023000E6FF0FEBE6FF10EBE6FF3DEC0DF0D70E0F
:10024000E66EA30EE66EE66A400EE66ED2EC0FF0A6
:10025000D2EC0FF0CBEC0DF0E552E5CF70F1E5CF2D
:100260006FF1E5CF6EF1E7CF6DF101016D51016ED8
:100270006E51026E6F51036E7051046EE80EE66EA1
:10028000030EE66EE66AE66A01EBE6FF02EBE6FFC6
:1002900003EBE6FF04EBE6FF62EC0EF0E552E5CF80
:1002A00070F1E5CF6FF1E5CF6EF1E7CF6DF16DC184
:1002B000CBF06EC1CCF009EBE6FF0AEBE6FF0BEBEF
:1002C000E6FF0CEBE6FF3DEC0DF00DEBE6FF0EEB71
:1002D000E6FF0FEBE6FF10EBE6FF3DEC0DF0E10E65
:1002E000E66E7A0EE66EBC0EE66E400EE66ED2EC60
:1002F0000FF0D2EC0FF0CBEC0DF0E552E5CF70F142
:10030000E5CF6FF1E5CF6EF1E7CF6DF101016D51F2
:10031000016E6E51026E6F51036E7051046EE80EE5
:10032000E66E030EE66EE66AE66A01EBE6FF02EBB6
:10033000E6FF03EBE6FF04EBE6FF62EC0EF0E552AE
:10034000E5CF70F1E5CF6FF1E5CF6EF1E7CF6DF15D
:100350006DC1CDF06EC1CEF0016A026A036A046A13
:1003600051E9E7CFD9FF1200D9CFE6FFE1CFD9FF9E
:1003700081E944E8016A026A036A046AD350700B97
:10038000E842E842E842E842F36EF46A070EF318E6
:1003900001E1F4503CE0060EF31801E1F45033E0C3
:1003A000050EF31801E1F4502AE0040EF31801E100
:1003B000F45021E0030EF31801E1F45018E0020EAE
:1003C000F31801E1F4500FE0010EF31801E1F450CD
:1003D00006E0F35022E1F45020E11F0E01D0FA0EA6
:1003E000016E026A18D0F40E016E010E13D0E80EF1
:1003F000016E030E0FD0D00E016E070E0BD0A00EB3
:10040000016E0F0E07D0400E016E1F0E03D0800E3E
:10041000016E3E0E026E036A046A9B50400B01E0BF
:10042000010E01016D6F6E6B010E6D1923E16E51AE
:1004300021E1040EE66EE66AE66AE66A01EBE6FF93
:1004400002EBE6FF03EBE6FF04EBE6FF81EC0FF0C7
:10045000E552E5CF70F1E5CF6FF1E5CF6EF1E7CF73
:100460006DF101016D51016E6E51026E6F51036E9F
:100470007051046E01EBBEF102EBBFF103EBC0F172
:1004800004EBC1F145E9E7CFD9FF1200FA0EE66EA1
:10049000CAEC1DF041E9FA0EE66ECAEC1DF041E926
:1004A000FA0EE66ECAEC1DF041E9FA0EE66ECAECF1
:1004B0001DF041E9FA0EE66ECAEC1DF041E9FA0EB4
:1004C000E66ECAEC1DF041E912000001EB5101019A
:1004D0006D6F6E6BAA0E6D1901E16E5102E009D9C4
:1004E00004D00001EC2B000EED23FC50800B01E04A
:1004F000010E01016D6F6E6B6D516E1105E0000113
:10050000F82B000EF9230DD0FC50400B01E0010E3A
:100510006D6F6E6B6D516E1104E00001F62B000ED5
:10052000F723D050100B01E0010E01016D6F6E6BCF
:100530006D516E1105E0D0980001F42B000EF523EB
:10054000D050020B01E0010E01016D6F6E6B6D5119
:100550006E1105E0D0920001EE2B000EEF23D0507B
:10056000010B01016D6F6E6B6D516E1105E0D09046
:100570000001F02B000EF123D050080B01E0010E1A
:1005800001016D6F6E6B6D516E1105E0D09600012B
:10059000F22B000EF32326DB58EF05F0D9CFE6FF50
:1005A000E1CFD9FF84E90001C85101016D6F6E6B85
:1005B000200ED8906EBF03D06D5D000E6E5902E321
:1005C000000E21D00250E66E0001C851030DF3CF9A
:1005D000E9FFF4CFEAFF680EE926000EEA22E552B1
:1005E000E750EF6EC851030DF3CFE9FFF4CFEAFFF8
:1005F000680EE926000EEA22EE5200EBEEFF01EB58
:10060000EDFFC82B010E41E9E7CFD9FF1200D9CF8A
:10061000E6FFE1CFD9FF81E941E8016A015001011C
:100620006D6F6E6B1F0ED8906EBF03D06D5D000EA8
:100630006E594AE2010E0124E96EEA6AEA36030EB7
:10064000EA02F3CFEAFFE902F3CFE9FFF450EA262A
:10065000680EE926000EEA22EF50E66E0150030D07
:10066000F3CFE9FFF4CFEAFF680EE926000EEA2295
:10067000E552E750EF6E010E0124E96EEA6AEA36B0
:10068000030EEA02F3CFEAFFE902F3CFE9FFF450E9
:10069000EA26680EE926000EEA22EECF6DF1EECFD3
:1006A0006EF1EFCF6FF10150030DF3CFE9FFF4CFFF
:1006B000EAFF680EE926000EEA22EE526EC1EEFF56
:1006C0006FC1EDFF012AAAD70001C56BC66BC76BCE
:1006D000C85101016D6F6E6B6E3507E26D510008F8
:1006E000000E6E5502E20001C80742E9E7CFD9FFCC
:1006F0001200D9CFE6FFE1CFD9FF81E941E800013F
:10070000676BFE0E656F666B606F616B626B2CDEF4
:10071000BEC1D1F0BFC1D2F0C0C1D3F0C1C1D4F0CD
:10072000040EE66EE66AE66AE66ABEC1E6FFBFC18F
:10073000E6FFC0C1E6FFC1C1E6FF400EE66E420E15
:10074000E66E0F0EE66EE66A62EC0EF081EC0FF0DC
:10075000E552E5CFD8F0E5CFD7F0E5CFD6F0E7CF3B
:10076000D5F0016A015001016D6F6E6B200ED890BB
:100770006EBF03D06D5D000E6E591AE20150030D7D
:10078000F3CFE9FFF4CFEAFF680EE926000EEA2274
:10079000EE52EE6AED6A0150030DF3CFE9FFF4CF9C
:1007A000EAFF680EE926000EEA22EF6A012ADAD78C
:1007B0000001C86BCF6BD06BCD6BCE6BC96BCA6BB6
:1007C000CB6BCC6BAA0EEB6FEC6BED6BF06BF16B44
:1007D000EE6BEF6BF46BF56BF26BF36BF86BF96B25
:1007E000F66BF76BEA6BE96BDD6BDE6BDF6BE06B77
:1007F000E16BE26B070EE86FE76BE66B020ED96FF9
:10080000E66A080EE66EE66AE66A100EE66EE66ACC
:10081000E66AE66AD1C0E6FFD2C0E6FFD3C0E6FFD3
:10082000D4C0E6FFE80EE66E030EE66EE66AE66A00
:1008300081EC0FF062EC0EF062EC0EF0E552E5CFC9
:1008400070F1E5CF6FF1E5CF6EF1E7CF6DF16DC1DE
:1008500058FF6EC159FF0001D951E66EE66A58CFC4
:10086000E6FF59CFE6FF26EC0EF0E552E5CF5DFF3F
:10087000E7CF5CFF0001010E676FD58ECD8042E9A6
:10088000E7CFD9FF1200D9CFE6FFE1CFD9FF81E949
:1008900041E80001DD2B000EDE23DF23E023685159
:1008A000F36EF46AE868F31801E1F45001E1E2D074
:1008B000020EF31801E1F45001E1CED0130EF3184B
:1008C00001E1F45001E1E2D0120EF31801E1F4501D
:1008D00001E1DCD0F10EF31801E1F45001E19AD00E
:1008E000F00EF31801E1F45001E1D0D0100EF3182E
:1008F00001E1F45040E0010EF31801E1F4500AE088
:10090000F35001E0C3D0F45001E0C0D0E32B000E5F
:10091000E423BCD08BEC18F00001E951EA6FDDC094
:10092000E1F0DEC0E2F0E66AE66AC80EE66E420E6C
:10093000E66EDDC0E6FFDEC0E6FFDFC0E6FFE0C03A
:10094000E6FF3DEC0DF0E3C0E6FFE4C0E6FFBFECE0
:100950000CF0A8EC0EF0D2EC0FF064EC0DF041E9D5
:10096000E7500001E56FE96BDD6BDE6BDF6BE06B81
:10097000E36BE46B8BD06951016E130EF36EF46A76
:10098000F350011805E1F45003E1B2EC10F07ED011
:10099000270EF36EF46AF350011805E1F45003E1F9
:1009A000AAEC11F073D00150E66EE66AFFEC1DF080
:1009B00042E9F3CF6DF1F4CF6EF10101F350F41081
:1009C00065E00101685101016D6F6E6B6E3507E2E4
:1009D0006D511308000E6E5502E2B2EC10F001509A
:1009E000E66E01016951140DF3CF6DF1F4CF6EF194
:1009F000000E01016D27010E6E2301016851682B65
:100A00000101EA6A6D25E96E6E51EA22E552E7506E
:100A1000EF6E3CD0030E691901E16A5138E0020E15
:100A2000691901E16A5133E0010E691901E16A5166
:100A30000AE069512BE16A5129E1E9DD000EE66E19
:100A4000E66A010E05D0E3DD000EE66EE66A020EF0
:100A5000E66EA4DD43E91BD0E75101016D6F6E6BBB
:100A6000010E6D1913E16E5111E10001E92B12EC39
:100A700013F00CD00001685101016D6F6E6BFF0E19
:100A80006D1905E16E5103E1C2DDF4D7C0DD42E925
:100A9000E7CFD9FF12000101AB6BAB510F0BF36E27
:100AA000F346F346C30EC214F310C26EC2821200A4
:100AB000D9CFE6FFE1CFD9FF81E942E8016A026AB6
:100AC000070ED89002BE03D0015C000E025811E25E
:100AD00001EBE9FF02EBEAFFD890E936EA36970E20
:100AE000E926010EEA22EE6AED6A012A000E0222D0
:100AF000E7D70101A56BA66B0F0EAB6F380EA76F82
:100B00005B0EA86F120EA96FAA6B016A026A020E31
:100B1000D89002BE03D0015C000E025827E201EB20
:100B2000E9FF02EBEAFFD890E936EA36D890E936D9
:100B3000EA364E0EE9260F0EEA22EE6AED6A01EB66
:100B4000E9FF02EBEAFFD890E936EA36D890E936B9
:100B5000EA364E0EE9260F0EEA22020EE926000EB4
:100B6000EA22EE68ED68012A0222D1D7016A026A00
:100B7000020ED89002BE03D0015C000E025827E29C
:100B800001EBE9FF02EBEAFFD890E936EA36D890AC
:100B9000E936EA36560EE9260F0EEA22EE6AED6ACB
:100BA00001EBE9FF02EBEAFFD890E936EA36D8908C
:100BB000E936EA36560EE9260F0EEA22020EE9263B
:100BC000000EEA22EE68ED68012A0222D1D7000168
:100BD000FD6BFC6BFB6BFE6BFA6BFF6B43E9E7CFC6
:100BE000D9FF12008F0ED3147009D36ED3829B8C61
:100BF0009B8E7896C30EC2143C09C26EC198C19AEE
:100C0000C08EC70EC0143809C06EF80EC014060995
:100C1000C06EC280D58CD59AF80ED5140209D56E57
:100C2000D596D59ECF0ECD140009CD6ECD8ECD9626
:100C3000CD9CCD84CD92CD909C0EC86EC78EC79CA6
:100C4000C68AF00EC6140809C66E94869488D08EA3
:100C5000F1849F809E929F9C9F96F294F28A9E9030
:100C60009D809E9C9D8C9E969D86F28EF28C12009D
:100C7000D9CFE6FFE1CFD9FF87E94CE8010E0B6E33
:100C80000C6A0D6A0E6A0F6A106A116A126A010113
:100C90006D6F6E6B6F6B706B0004716F000E01589F
:100CA00071511F0B08E00101D8906D376E376F3717
:100CB0007037E806F9E101016D51076E6E51086E5B
:100CC0006F51096E70510A6E0750081009100A1012
:100CD00042E007EB6DF108EB6EF109EB6FF10AEB07
:100CE00070F1D950020FE96EDACFEAFFEE506D17BE
:100CF000EE506E17EE506F17EE5070176D516E116B
:100D00006F1170110DE0D9500F0FE96EDACFEAFFC5
:100D10000B50EE120C50EE120D50EE120E50EE1261
:100D2000D9500B0FE96EDACFEAFFD890EF36010EFB
:100D3000EB36020EEB36030EEB36D950070FE96E99
:100D4000DACFEAFFD890030EEB32020EEB32010E3F
:100D5000EB32EF32B9D70FEBBEF110EBBFF111EB75
:100D6000C0F112EBC1F14DE9E7CFD9FF1200D9CFA5
:100D7000E6FFE1CFD9FF87E96AE8200E076E086A2F
:100D8000B70E096E1D0E0A6EC10E0B6E040E0C6EB0
:100D90000D680E680F681068010E116E126A136EEE
:100DA000146A2D682E682F6830680101716F726BAC
:100DB000736B746B0704756F000E0858766F75516E
:100DC0001F0B08E00101D890713772377337743701
:100DD000E806F9E171C16DF172C16EF173C16FF195
:100DE00074C170F101016D07000E6E5B6F5B705B8B
:100DF000010E1F0B08E00101D8906D376E376F3779
:100E00007037E806F9E10101010E776F786B796BB5
:100E10007A6B77516D1378516E1379516F137A5144
:100E200070136D51196E6E511A6E6F511B6E7051A9
:100E30001C6E010E6D6F6E6B6F6B706B0704716FC4
:100E4000000E0858726F71511F0B08E00101D89015
:100E50006D376E376F377037E806F9E101016D5174
:100E6000156E6E51166E6F51176E7051186E1D6AA9
:100E70001E6A1F6A206A00501D5C01501E580250F5
:100E80001F580350205801E3BFD004EBE9FF05EBE6
:100E9000EAFF042A000E0522EF506D6F6E6B6F6B38
:100EA000706B6EAF02D06F6970696D51256E6E51B7
:100EB000266E6F51276E7051286E115012101EE071
:100EC000080EE66EE66A25EBE6FF26EBE6FF27EB6B
:100ED000E6FF28EBE6FFCCDE46E9BEC16DF1BFC1FF
:100EE0006EF1C0C16FF1C1C170F101016D51256E8C
:100EF0006E51266E6F51276E7051286E800E216ED6
:100F0000226A236A246A215022102310241071E0DF
:100F100015EB6DF116EB6EF117EB6FF118EB70F14D
:100F2000D9502D0FE96EDACFEAFFEE506D17EE5073
:100F30006E17EE506F17EE5070176D51296E6E518F
:100F40002A6E6F512B6E70512C6ED9502D0FE96E99
:100F5000DACFEAFFD890EF36010EEB36020EEB3611
:100F6000030EEB3621EB6DF122EB6EF123EB6FF10B
:100F700024EB70F1D950250FE96EDACFEAFFEE507D
:100F80006D17EE506E17EE506F17EE5070176D51D3
:100F90006E116F1170110DE0D950290FE96EDACF83
:100FA000EAFF1550EE1A1650EE1A1750EE1A1850A6
:100FB000EE1A29502A102B102C100DE0D9502D0FAD
:100FC000E96EDACFEAFF0950EE1A0A50EE1A0B501A
:100FD000EE1A0C50EE1AD950210FE96EDACFEAFF63
:100FE000D890030EEB32020EEB32010EEB32EF32F1
:100FF0008AD7D9501D0FE96EDACFEAFFEE2A000E2C
:10100000EE22EE22EE2237D7135014101FE007EB2A
:10101000E6FF08EBE6FF2DEBE6FF2EEBE6FF2FEBFE
:10102000E6FF30EBE6FF24DE46E9BEC16DF1BFC14D
:101030006EF1C0C16FF1C1C170F101016D512D6E32
:101040006E512E6E6F512F6E7051306ED9502D0F24
:10105000E96EDACFEAFF0D50EE1A0E50EE1A0F507D
:10106000EE1A1050EE1AD9502D0FE96EDACFEAFFC2
:101070001950EE161A50EE161B50EE161C50EE16B6
:101080002DEBBEF12EEBBFF12FEBC0F130EBC1F138
:101090006BE9E7CFD9FF1200D9CFE6FFE1CFD9FF47
:1010A00084E944E806680768056A055001016D6F28
:1010B0006E6B00506F6F706B6E356E51701904E679
:1010C0006D516F5D6E5170593DE305500124E96E1D
:1010D000000E0220EA6EEF500618046E04506F6F87
:1010E000706B040E6FC16DF170C16EF1000A06E005
:1010F0000101D8906D376E37E804FBE101016D51B5
:10110000041A0450080D0450716F726B040E736F53
:10111000735171C16FF172C170F106E00101D89095
:1011200070336F33E804FBE1075001016F196D6FF5
:10113000F350756B6D51F318066EF4500418076E7A
:10114000052AB3D706EBF3FF07EBF4FF45E9E7CF3A
:04115000D9FF1200B1
:0C115400D9CFE6FFE1CFD9FF81E943E8E5
:10116000016A015001016D6F6E6B140ED8906EBF55
:1011700003D06D5D000E6E591EE20150EA6A000F49
:10118000E96E000EEA22EF6A0150EA6A140FE96E76
:10119000000EEA22EF6A0150EA6A280FE96E000E9B
:1011A000EA22EF6A0150EA6A3C0FE96E000EEA2279
:1011B000EF6A012AD6D70001566B040E556F140E44
:1011C000546F010E576F506B400E516F140E526FDB
:1011D000540E536F83888390839283948396839E67
:1011E000839C839A959E959C959A959695949592B5
:1011F00095909598030E026EE66A5A0EE66E620EA0
:10120000E66E020EE66E3DEC00F044E90250E66E3A
:10121000D1DA41E9A00EE66E8F0EE66E3E0EE66E66
:10122000E66A3DEC00F044E90250E66EC3DA41E9BB
:10123000A00EE66E860EE66E010EE66EE66A3DECE8
:1012400000F044E90250E66EB5DA41E9020E026EA2
:101250000250E66EAFDA41E919D90009FDE16F0EDF
:10126000F66E3C0EF76E0800F5CF6DF1740EF66E5B
:101270003C0EF76E0800F55001016D11E66E56D96F
:1012800041E904D90009FDE16D0EF66E3C0EF76EE2
:101290000800F5CF6DF1730EF66E3C0EF76E080088
:1012A000F55001016D11E66E41D941E9EFD8000911
:1012B000FDE16A0EF66E3C0EF76E0800F550E66E24
:1012C00035D941E9E3D80009FDE16C0EF66E3C0E1C
:1012D000F76E0800F5CF6DF1720EF66E3C0EF76EEC
:1012E0000800F55001016D11E66E20D941E9CED814
:1012F0000009FDE1E66A210EE66E63D942E9C6D82F
:101300000009FDE1200EE66E030EE66EE66AE66A6F
:101310003DEC00F044E9E66AE1DA41E9036E210EB2
:10132000F36EF46AF350031801E1F45002E0010E89
:1013300001D0000E44E9E7CFD9FF1200D9CFE6FF74
:10134000E1CFD9FF81E945E8026A025001016D6FE2
:101350006E6B000155510101D8906EBF03D06D5DD9
:10136000000E6E5901E38ED0710EF66E3C0EF76ED4
:101370000800F5CF6DF10250EA6A500FE96E000ED9
:10138000EA22EF506D11056E81D80009FDE105508C
:10139000E66ECCD841E9016A015001016D6F6E6BB8
:1013A000000154510101D8906EBF03D06D5D000E55
:1013B0006E5966E26BD80009FDE1838E839C95909F
:1013C000959295949596640EE66EE66AE66AE66AEC
:1013D0003DEC00F044E90250140DF3CF71F1F4CF6D
:1013E00072F1000E01017127000E72230150EA6AAA
:1013F0007125E96E7251EA22EF506F6F706B040E27
:10140000736F73516FC16DF170C16EF106E0010130
:10141000D8906E336D33E804FBE101016D51036E2A
:101420000250140DF3CF6EF1F4CF6FF1000E6E2762
:10143000000E6F230150EA6A6E25E96E6F51EA22B1
:10144000EFCF6DF10F0E6D15046E0350E66EB2D93D
:1014500041E9900EE66E010EE66EE66AE66A3DEC44
:1014600000F044E90450E66EA5D941E90A0EE66EA3
:10147000E66AE66AE66A3DEC00F044E9012A8CD7A8
:10148000022A63D746E9E7CFD9FF1200D9CFE6FF9A
:10149000E1CFD9FF81E944E8016A026A036A046A7C
:1014A0009586958495829580838C839EB9D9026EAA
:1014B000900EE66E010EE66EE66AE66A3DEC00F01E
:1014C00044E9AED9036E025001016F6F706B040ED8
:1014D0006FC16DF170C16EF1000A06E00101D89094
:1014E0006D376E37E804FBE103500101716F726BD9
:1014F0006D517111016E800E0114046E800EF36E39
:10150000F46AF35004180DE1F4500BE1900EE66E0E
:10151000010EE66EE66AE66A3DEC00F044E9010E73
:1015200001D0000E45E9E7CFD9FF1200D9CFE6FF81
:10153000E1CFD9FF82E943E80050026E0250010179
:101540006F6F706B040E716F71516FC16DF170C16F
:101550006EF106E00101D8906E336D33E804FBE1D3
:1015600001016D51036E0F0E0214046E9590959259
:1015700095949596839E839C640EE66EE66AE66A71
:10158000E66A3DEC00F044E90350E66E13D941E908
:10159000900EE66E010EE66EE66AE66A3DEC00F03D
:1015A00044E90450E66E06D941E90A0EE66EE66AA1
:1015B000E66AE66A3DEC00F044E944E9E7CFD9FF8A
:1015C0001200D9CFE6FFE1CFD9FF83E943E801500C
:1015D00001016F6F706B040E716F71516FC16DF10E
:1015E00070C16EF106E00101D8906E336D33E804EE
:1015F000FBE101016D51036E0F0E0114046E710EBB
:10160000F66E3C0EF76E0800F5500010056E3EDFDA
:101610000009FDE10550E66E89DF41E937DF000989
:10162000FDE1838E839C9590959295949596640E9A
:10163000E66EE66AE66AE66A3DEC00F044E90350CD
:10164000E66EB8D841E9900EE66E010EE66EE66AE7
:10165000E66A3DEC00F044E90450E66EABD841E99F
:101660000A0EE66EE66AE66AE66A3DEC00F044E9D8
:1016700044E9E7CFD9FF1200D9CFE6FFE1CFD9FF88
:1016800083E942E8015001016F6F706B040E716FC6
:1016900071516FC16DF170C16EF106E00101D8901A
:1016A0006E336D33E804FBE101016D51036E0F0EE3
:1016B0000114046E700EF66E3C0EF76E0800F550C5
:1016C0000010E66E33DF41E9E1DE0009FDE1838EC3
:1016D000839C9590959295949596640EE66EE66A35
:1016E000E66AE66A3DEC00F044E90350E66E62D833
:1016F00041E9900EE66E010EE66EE66AE66A3DECA2
:1017000000F044E90450E66E55D841E90A0EE66E51
:10171000E66AE66AE66A3DEC00F044E943E9E7CFB1
:10172000D9FF1200D9CFE6FFE1CFD9FF81E941E827
:10173000016A015001016D6F6E6B140ED8906EBF7F
:1017400003D06D5D000E6E5922E20150EA6A000F6F
:10175000E96E000EEA22200EEF6E0150EA6A140FC5
:10176000E96E000EEA22200EEF6E0150EA6A280FA1
:10177000E96E000EEA22200EEF6E0150EA6A3C0F7D
:10178000E96E000EEA22200EEF6E012AD2D77EDE2D
:101790000009FDE16A0EF66E3C0EF76E0800F5508A
:1017A000E66EC4DE41E972DE0009FDE142E9E7CF01
:1017B000D9FF1200D9CFE6FFE1CFD9FF82E9838AB2
:1017C0000050F36EF350080B02E0838601D083963D
:1017D0000050F36EF350040B02E0838401D0839435
:1017E0000050F36EF46AF350020B02E0838201D0E2
:1017F00083920050F36EF46AF350010B02E0838091
:1018000001D08390900EE66E010EE66EE66AE66AFF
:101810003DEC00F044E9839A41E9E7CFD9FF12009B
:10182000D9CFE6FFE1CFD9FF81E941E8016A838A98
:10183000900EE66E010EE66EE66AE66A3DEC00F09A
:1018400044E98350080B01E0010E01016D6F6E6BDE
:10185000010E6D1903E16E5101E1012A01506D6F16
:101860006E6BD8906D376E376D51016E8350040BDF
:1018700001E0010E6D6F6E6B010E6D1903E16E518B
:1018800001E1012A01506D6F6E6BD8906D376E3794
:101890006D51016E8350020B01E0010E6D6F6E6B96
:1018A000010E6D1903E16E5101E1012A01506D6FC6
:1018B0006E6BD8906D376E376D51016E8350010B92
:1018C0006D6F6E6B010E6D1903E16E5101E1012A1E
:1018D000839A015042E9E7CFD9FF1200D9CFE6FF42
:1018E000E1CFD9FF82E943E8026A036A046A710E14
:1018F000F66E3C0EF76E0800F5500010E66E16DE30
:1019000041E9C4DD0009FDE1838C838E95869584D1
:1019100095829580900EE66E010EE66EE66AE66AA6
:101920003DEC00F044E97CDF036E900EE66E010EA4
:10193000E66EE66AE66A3DEC00F044E971DF046EAB
:10194000035001016F6F706B040E6FC16DF170C1B8
:101950006EF1000A06E00101D8906D376E37E80499
:10196000FBE104500101716F726B6D517111026ED8
:0E197000839C839E025044E9E7CFD9FF12000A
:02197E00D898F7
:1019800001D0D88850E8D9CFE6FFDACFE6FFE1CF23
:10199000D9FFE2CFDAFF94E9089E07E701AE05D050
:1019A000006C011EE86A0122088E81EB0CF080EBCE
:1019B0000BF00A6A096A8E0E0D6E0E6AE0EF0CF0EB
:1019C0000C500B100A10091055E00EBE4DD00CBE85
:1019D0000CD00D500E1048E0D89009360A360B3660
:1019E0000C360D06D8A00E06F2D70E5031E10D28A8
:1019F0002FE009AE11D07F0E091402E10AA00CD02D
:101A00000A2AE86A0B220C2207E3D8800C320B3238
:101A10000A320D2A0D281CE00D5026E08AEB00F05A
:101A20008BEB01F00C34026E0D30036E0232039E1C
:101A300008BE038EE552E5CFDAFFE7CFD9FF4EE9C6
:101A400012007F0E036EFF0E026E016E006EF2D763
:101A50007F0E08BEFF0E036E02D07F0E036E800E57
:101A6000026E016A006AE6D708AE04D0800E036EEB
:101A7000026AF7D7036A026AF4D7D89801D0D888E7
:101A80004EE8D9CFE6FFDACFE6FFE1CFD9FFE2CFCC
:101A9000DAFF94E9089E0BE703AE09D0006C011E43
:101AA000021E031EE86A012202220322088E83EB33
:101AB0000CF082EB0BF081EB0AF080EB09F09E0E4C
:101AC0000D6E0E6AE0EF0CF045E8D9CFE6FFDACFF5
:101AD000E6FFE1CFD9FFE2CFDAFF8BE9086AB5EC88
:101AE0000DF008B678EF0DF008AA0AD008BC03D0B4
:101AF0007F0E006E1BD0800E006E18D0006A16D0CC
:101B000008B8FCD7870E0360F1D77E0E0364F6D7C2
:101B1000860E035C04E0D8900232032AF9D708ACA1
:101B200003D0026C02AEEAD782EB00F0E552E5CFBB
:101B3000DAFFE7CFD9FF48E912000636073602E39D
:101B40000884087E06E10880076A066A056A046A56
:101B50001200072803E0D88006321200D89006321F
:101B600002E108821200088612000236033602E300
:101B7000088C087E06E10888036A026A016A006A26
:101B80001200032803E0D88002321200D8900232FB
:101B9000EAE1088A120045E8D9CFE6FFDACFE6FF8E
:101BA000E1CFD9FFE2CFDAFF8BE9086AB5EC0DF09F
:101BB00008B6DFEF0DF008AA0FD008BC07D07F0EE3
:101BC000036EFF0E026E016E006E2DD0800E036E4E
:101BD00001D0036A000EF6D708B8FBD7076A9F0E3C
:101BE0000360EBD77E0E0364F4D79E0E035C07E020
:101BF000D8900232013200320732032AF6D708ACFD
:101C00000AD0076C001E011E021EE86A0022012293
:101C1000022202AEDED782EB03F081EB02F080EB12
:101C200001F087EB00F0E552E5CFDAFFE7CFD9FF0F
:101C300045E9120043E8D9CFE6FFDACFE6FFE1CF6E
:101C4000D9FFE2CFDAFF89E9066A1200F3DF0680E6
:101C500003D0F0DF01D00682056A046A100EE76E39
:101C6000D89002360336043605360050045C015025
:101C7000055805E30050045E0150055A022AE72E7C
:101C8000F0D706B2120006B006D084EB00F085EB68
:101C900001F006A004D082EB00F083EB01F0E552E6
:101CA000E5CFDAFFE7CFD9FF45E9120045E8D9CF04
:101CB000E6FFDACFE6FFE1CFD9FFE2CFDAFF8FE927
:101CC0000C6A1200F3DF0C8003D0F0DF01D00C822D
:101CD0000B6A0A6A096A086A200EE76ED890043611
:101CE000053606360736083609360A360B360050F2
:101CF000085C0150095802500A5803500B5809E378
:101D00000050085E0150095A02500A5A03500B5AFB
:101D1000042AE72EE4D70CB212000CB00AD088EBEC
:101D200000F089EB01F08AEB02F08BEB03F00CA0E2
:101D300008D084EB00F085EB01F086EB02F087EB36
:101D400003F0E552E5CFDAFFE7CFD9FF49E912000A
:101D50004AE8D9CFE6FFDACFE6FFE1CFD9FFE2CFFD
:101D6000DAFF94E9086A9DEC0DF0B5EC0DF008B6C9
:101D700021EF0DF008A205D008BA21EF0DF028EFF1
:101D80000DF008BA34EF0DF008A005D008B821EF27
:101D90000DF034EF0DF008B828EF0DF00E6A7F0E4D
:101DA00007240D6EE86A0E2203500D5EE86A0E5A93
:101DB0001A0E0F6E076A096A0A6A0B6A0C6A0050EB
:101DC000045E0150055A0250065A000E075A09E7F0
:101DD000005004260150052202500622000E072260
:101DE00001D0098AD8900436053606360736D890D1
:101DF00009360A360B360C360F2EE1D70650051081
:101E00000410D8A4098AE0EF0CF043E8D9CFE6FF2C
:101E1000DACFE6FFE1CFD9FFE2CFDAFF89E9066A40
:101E20001200F3DF068001D0F0DF01AE1EEF0FF0ED
:101E3000006C011EE86A012206B0067E03AE26EFA2
:101E40000FF0026C031EE86A0322067E2BEC0EF0F4
:101E500003BE48EF0FF006AE08D0026C031EE86A1E
:101E60000322046C051EE86A052206B006D084EB46
:101E700000F085EB01F006A004D082EB00F083EBCC
:101E800001F0E552E5CFDAFFE7CFD9FF45E9000CD5
:101E900006BE2DEF0FF0E9DFFF0C44E8D9CFE6FFD7
:101EA000DACFE6FFE1CFD9FFE2CFDAFF8AE980EBB4
:101EB00004F081EB05F082EB06F002500402F450CE
:101EC000016EF350006E0350076E0502F450036E6E
:101ED000F350026E07500402F3500126F450022220
:101EE000E86A032206500502F3500126F45002224C
:101EF000E86A0322E552E5CFDAFFE7CFD9FF46E9EA
:101F0000000C44E8D9CFE6FFDACFE6FFE1CFD9FFF6
:101F1000E2CFDAFF8EE980EB08F081EB09F082EB8B
:101F20000AF083EB0BF004500802F350006EF450FB
:101F3000016E04500902F3500126000EF420026ED7
:101F400004500A02F3500226000EF420036E0450DF
:101F50000B02F350032605500802F3500126F450FB
:101F60000222000E032205500902F3500226F4500B
:101F7000032205500A02F350032606500802F350CC
:101F80000226F450032206500902F350032607509C
:101F90000802F3500326E552E5CFDAFFE7CFD9FF79
:101FA00048E9000C4AE8D9CFE6FFDACFE6FFE1CFF7
:101FB000D9FFE2CFDAFF94E9086A9DEC0DF0B5ECA9
:101FC0000DF008B621EF0DF008A205D008B821EFFA
:101FD0000DF028EF0DF008AA05D008B021EF0DF0A4
:101FE00028EF0DF008B002D008A802D034EF0DF0B1
:101FF0000E6A035007240D6EE86A0E227E0E0D5EF7
:10200000E86A0E5A096A0A6A0B6A0C6A02500602EA
:10201000F4500C6EF3500B6E01500602F3500A267A
:10202000F4500B22000E0C2202500502F3500A2637
:10203000F4500B22000E0C2200500602F350092629
:10204000F4500A22000E0B220C2201500502F3501C
:102050000926F4500A22000E0B220C220250040220
:10206000F3500926F4500A22000E0B220C220050D5
:102070000502F4500926000E0A220B220C22015000
:102080000402F4500926000E0A220B220C22E0EF73
:022090000CF052
:0E209200D9CFE6FFE1CFD9FF81E942E8026A2B
:1020A000025001016D6F6E6B050ED8906EBF03D0AC
:1020B0006D5D000E6E5922E2016A01506D6F6E6B0C
:1020C000140ED8906EBF03D06D5D000E6E5914E2F1
:1020D0000250140DF3CF6DF1F4CF6EF1000E6D27A9
:1020E000010E6E230150EA6A6D25E96E6E51EA22F7
:1020F000200EEF6E012AE1D7022AD2D70101686BC8
:10210000696B6A6B6B6B010E6C6FEF0EE66E380ECF
:10211000E66EA5D842E9AAEC08F000090AE0200E14
:10212000E66E030EE66EE66AE66A3DEC00F044E910
:10213000F2D792EC0BF00001555101016D6F6E6BFF
:102140006D07000E6E5B6DC16BF1E70EE66E380E2B
:10215000E66E85D842E90001010EE76F43E9E7CF5B
:10216000D9FF1200D9CFE6FFE1CFD9FF81E941E8DD
:10217000040E016E015001016D6F6E6B6E3532E21F
:102180006D510008000E6E552DE2140EE66EE66AE3
:1021900001506D6F6E6B6D07000E6E5B140E6E035B
:1021A000F3CF6EF16D03F3CF6DF1F4506E27000E97
:1021B0006D27010E6E236DC1E6FF6EC1E6FF015073
:1021C000140DF3CF6FF1F4CF70F1000E6F27010EF5
:1021D00070236FC1E6FF70C1E6FF15EC1CF046E905
:1021E0000106C8D7140EE66EE66AD20EE66E380E09
:1021F000E66EE66A000EE66E010EE66E43EC1CF03B
:1022000047E90101686B696B42E9E7CFD9FF12002A
:10221000D9CFE6FFE1CFD9FF83E9015001016D6F0E
:102220006E6B140ED8906EBF03D06D5D000E6E59AC
:1022300003E201500101686F005001016D6F6E6B88
:10224000050ED8906EBF03D06D5D000E6E5903E28F
:1022500000500101696F41E9E7CFD9FF1200D9CFE2
:10226000E6FFE1CFD9FF83E956E8036A046A00EB91
:10227000E6FF01EBE6FFE66AD950050FE66EDACF1E
:10228000E6FFFCEC1BF045E90550046E045001012B
:102290006D6F6E6B6D516E1159E00450E66E010169
:1022A0006951140DF3CF6DF1F4CF6EF1000E010101
:1022B0006D27010E6E23010168510101EA6A6D2547
:1022C000E96E6E51EA22E552E750EF6E0101682B8C
:1022D000032A685101016D6F6E6B6E3506E26D5118
:1022E0001308000E6E5501E23DDF0101D950050FC4
:1022F0006D6FDACF6EF10350EA6A6D25E96EDA5040
:10230000EA22EF50046E0A0EF36EF46AF3500418DA
:1023100001E1F45002E0000E01D0010E6F6F706B0E
:102320000450736F746B7351741102E0000E01D08E
:10233000010E716F726B6F5171116D6F705172116F
:102340006E6F6D516E11A2E0046AA0D757E9E7CF16
:10235000D9FF1200D9CFE6FFE1CFD9FF81E942E8EA
:10236000026A025001016D6F6E6B050ED8906EBF50
:1023700003D06D5D000E6E5922E2016A01506D6F4F
:102380006E6B140ED8906EBF03D06D5D000E6E594B
:1023900014E20250140DF3CF6DF1F4CF6EF1000E84
:1023A0006D27010E6E230150EA6A6D25E96E6E51AC
:1023B000EA22200EEF6E012AE1D7022AD2D70101CC
:1023C000686B696B43E9E7CFD9FF1200D9CFE6FF0D
:1023D000E1CFD9FF83E944E8066A056A80EB03F0A0
:1023E00081EB04F0100E035C270E045806E3052A67
:1023F000100E035E270E045AF5D7055001016D6FCC
:102400006E6B6E3522E26D510008000E6E551DE2B6
:10241000300E0524E66E01016951140DF3CF6DF104
:10242000F4CF6EF1000E01016D27010E6E23010144
:102430006851682B0101EA6A6D25E96E6E51EA2246
:10244000E552E750EF6E010E066E056AE80E035C7A
:10245000030E045806E3052AE80E035E030E045A31
:10246000F5D7055001016D6F6E6B6E3522E26D512F
:102470000008000E6E551DE2300E0524E66E0101C7
:102480006951140DF3CF6DF1F4CF6EF1000E01011F
:102490006D27010E6E2301016851682B0101EA6A64
:1024A0006D25E96E6E51EA22E552E750EF6E010E9E
:1024B000066E056A640E035C000E045806E3052AE6
:1024C000640E035E000E045AF5D705500101716FCA
:1024D000726B723504E271510008000E7255D870AB
:1024E0006F6B706B6F370650756F766B763504E2E5
:1024F00075510008000E7655D870736B746B733786
:102500006F5173116D6F705174116E6F6D516E114B
:102510001DE0300E0524E66E01016951140DF3CF64
:102520006DF1F4CF6EF1000E01016D27010E6E23E7
:1025300001016851682B0101EA6A6D25E96E6E514F
:10254000EA22E552E750EF6E010E066E056A0A0EAA
:10255000035C000E045806E3052A0A0E035E000E13
:10256000045AF5D705500101716F726B723504E2A0
:1025700071510008000E7255D8706F6B706B6F3719
:102580000650756F766B763504E275510008000EC3
:102590007655D870736B746B73376F5173116D6FA1
:1025A000705174116E6F6D516E111DE0300E052467
:1025B000E66E01016951140DF3CF6DF1F4CF6EF1A8
:1025C000000E01016D27010E6E2301016851682B79
:1025D0000101EA6A6D25E96E6E51EA22E552E75083
:1025E000EF6E010E066E300E0324E66E0101695196
:1025F000140DF3CF6DF1F4CF6EF1000E01016D27D4
:10260000010E6E2301016851682B0101EA6A6D25F4
:10261000E96E6E51EA22E552E750EF6E45E9E7CFE9
:10262000D9FF1200D9CFE6FFE1CFD9FF81E942E817
:10263000026A025001016D6F6E6B040ED8906EBF7E
:1026400003D06D5D000E6E594AE2016A01506D6F54
:102650006E6B140ED8906EBF03D06D5D000E6E5978
:102660003CE201016B510101716F726B0250F36E1C
:10267000F46AF350715D6F6FF4507259706F140EFD
:102680007003F3CF70F16F03F3CF6FF1F450702745
:10269000000E6F27010E7023015001016A25010110
:1026A000EA6AEA366F25E96E7051EA22EF50E66E6B
:1026B0000250140DF3CF6DF1F4CF6EF1000E6D27C3
:1026C000000E6E230150EA6A6D25E96E6E51EA2212
:1026D000E552E750EF6E012AB9D7022AAAD79EEC3D
:0A26E00009F043E9E7CFD9FF12002B
:0626EA00D9CFE6FFE1CFAD
:1026F000D9FF81E97FE845E8B2EC10F0060EE66EFE
:10270000390EE66E2FEC11F042E9446A44500101A3
:102710006D6F6E6B400ED8906EBF03D06D5D000E76
:102720006E590FE2D950010F6D6FDACF6EF1445040
:10273000EA6A6D25E96EDA50EA22AA0EEF6E442AA3
:10274000E5D73F6A446A445001016D6F6E6B040E19
:10275000D8906EBF03D06D5D000E6E5923E24450D9
:102760006D6F6E6B6D516E1102E1010E01D0AA0EFC
:10277000406E400EE66ED950010FE66EDACFE6FFEE
:102780004450030DF3CFE9FFF4CFEAFF420EE926F0
:102790000F0EEA22EECFE6FFEECFE6FFA2D845E924
:1027A000442AD1D7446A44506D6F6E6B400ED89066
:1027B0006EBF03D06D5D000E6E590EE2D950010F51
:1027C0006D6FDACF6EF14450EA6A6D25E96EDA502A
:1027D000EA22EF6A442AE7D7100E016E020E026E5B
:1027E000A00E036EA80E046E3C0EE66ED950010FCB
:1027F000E66EDACFE6FF4CEC08F043E9F350416EA9
:10280000F450426E010142EB6DF16E6B6D51436EFF
:1028100043503E6EFF0E4114436E43503F6E010E17
:10282000406E400EE66ED950010FE66EDACFE6FF3D
:1028300042CFE6FF43CFE6FF54D845E9010EE66EEE
:10284000B4D941E97FE946E9E7CFD9FF1200D9CFF2
:10285000E6FFE1CFD9FF86E943E881EB07F082EBA1
:1028600008F0FF0E0314A96EA69EA69C066A0650E9
:1028700001016D6F6E6B00500101D8906EBF03D0E7
:102880006D5D000E6E5911E2A6800000A850E66E44
:1028900001EBE9FF02EBEAFF012A000E0222E552FA
:1028A000E750EF6EA92A062AE2D7010E00D044E9CC
:1028B000E7CFD9FF1200D9CFE6FFE1CFD9FF83E9F7
:1028C00041E8036AFF0E0014A96EA69EA69CA6808E
:1028D0000000A850036E035000D042E9E7CFD9FFB3
:1028E0001200D9CFE6FFE1CFD9FF86E942E8076AB7
:1028F000FF0E0314A96EA69EA69CA684066A065027
:1029000001016D6F6E6B0050D8906EBF03D06D5D8E
:10291000000E6E594CE201EBE9FF02EBEAFF012ADF
:10292000000E0222EF50A86EA198F250800B01E039
:10293000010E6D6F6E6B6D516E1102E0020E076E2F
:10294000F250400B01E0010E6D6F6E6B6D516E1118
:1029500001E0072AF29CF29E550EA76EAA0EA76E02
:10296000A68207506D6F6E6B020ED8906EBF03D0BB
:102970006D5D000E6E5903E3F28E020E075E075086
:102980006D6F6E6B6E3506E26D510008000E6E5570
:1029900001E2F28C076AA150100B01E0010E6D6F8D
:1029A0006E6B6D516E11F7E0A92A062AA8D7010EA9
:1029B00043E9E7CFD9FF1200D9CFE6FFE1CFD9FF36
:1029C00081E941E8FA0EE66E380EE66E2FEC11F062
:1029D00042E912EC13F0016A015001016D6F6E6B58
:1029E000040ED8906EBF03D06D5D000E6E5901E3EA
:1029F0007FD00150400DF3CF6DF1F4CF6EF1015057
:102A0000030DF3CFE9FFF4CFEAFF420EE9260F0EE4
:102A1000EA226DC1EEFF6EC1EDFF0150030DF3CF51
:102A2000E9FFF4CFEAFF420EE9260F0EEA22EECFCD
:102A30006DF1EFCF6EF13F0E6D27000E6E236DC16D
:102A4000E6FF6EC1E6FF37DF42E9E66E0150030D97
:102A5000F3CFE9FFF4CFEAFF420EE9260F0EEA2298
:102A6000020EE926000EEA22E552E750EF6E015011
:102A7000030DF3CFE9FFF4CFEAFF420EE9260F0E74
:102A8000EA22020EE926000EEA22EF500101716FE0
:102A9000726BAA0E711901E1725102E0000E01D0B1
:102AA000010E6F6F706B0150030DF3CFE9FFF4CF90
:102AB000EAFF420EE9260F0EEA22020EE926000E78
:102AC000EA22EF50756F766BFF0E751901E17651B2
:102AD00002E0000E01D0010E736F746B6F51731121
:102AE0006D6F705174116E6F6D516E11012A74D734
:102AF00042E9E7CFD9FF1200D9CFE6FFE1CFD9FFF6
:102B000082E955E8150EE66ED950020FE66EDACF6F
:102B1000E6FF0050030DF3CFE9FFF4CFEAFF420ECA
:102B2000E9260F0EEA22EECFE6FFEECFE6FF8FDEBC
:102B300045E902500001656F666B0350606F0450F9
:102B4000616F626B0650CF6FD06B0750CD6FCE6B4D
:102B50000850C96FCA6B0950CB6FCC6B0A50EC6F31
:102B6000ED6B0B50F06FF16B0C50EE6FEF6B0D5087
:102B7000F46FF56B0E50F26FF36B0F50F86FF96B4B
:102B80001050F66FF76B11500001FD6F1250FC6F83
:102B90001350FB6F1450FE6F1550FA6F1650FF6FF5
:102BA000010E56E9E7CFD9FF1200D9CFE6FFE1CFFA
:102BB000D9FF82E955E800016551026E6051036E4C
:102BC0006151046E056ACF51066ECD51076EC95131
:102BD000086ECB51096EEC510A6EF0510B6EEE513E
:102BE0000C6EF4510D6EF2510E6EF8510F6EF651DF
:102BF000106E0001FD51116EFC51126EFB51136EEF
:102C0000FE51146EFA51156EFF51166E150EE66EDA
:102C1000D950020FE66EDACFE6FF0050030DF3CF76
:102C2000E9FFF4CFEAFF420EE9260F0EEA22EECFCB
:102C3000E6FFEECFE6FF55DE45E9150E026E020E09
:102C4000036EE66ED950020FE66EDACFE6FF005053
:102C5000030DF3CFE9FFF4CFEAFF420EE9260F0E92
:102C6000EA22EECF6DF1EFCF6EF13E0E01016D273E
:102C7000000E6E236DC1E6FF6EC1E6FF32DE45E950
:082C800056E9E7CFD9FF12006D
:082C8800DACFE4FFE2CFDAFF2E
:102C9000E9CFE4FFEACFE4FFBEC1E4FFBFC1E4FF38
:102CA000C0C1E4FFC1C1E4FFF6CFE4FFF7CFE4FF0A
:102CB000F5CFE4FFF3CFE4FFF4CFE4FFFACFE4FF76
:102CC00001EE6DF02A0EE80403E3EECFE4FFFBD73C
:102CD000E652D9CFE6FFE1CFD9FF81E941E8F250D2
:102CE000040B01E0010E0001586F596B5851591146
:102CF00057E0F294016A01500001586F596B020EBF
:102D0000D89059BF03D0585D000E595948E2015080
:102D1000040DF3CFE9FFF4CFEAFF560EE9260F0EBC
:102D2000EA22EECF58F0EDCF59F0EE2A000EEF2256
:102D30000150040DF3CFE9FFF4CFEAFF560EE92668
:102D40000F0EEA22EECF5AF0EECF5BF0EECF5CF042
:102D5000EFCF5DF058515C5D59515D591EE20001A5
:102D600067510001586F596B010E58190AE159510A
:102D700008E10150E66EE66AF10EE66ECEEC02F076
:102D800043E90150040DF3CFE9FFF4CFEAFF560EFB
:102D9000E9260F0EEA22EE6AED6A012AACD7F28A22
:102DA0009E50010B586F596B5851591157E09E9026
:102DB000016A01500001586F596B020ED89059BF3B
:102DC00003D0585D000E595948E20150040DF3CF6D
:102DD000E9FFF4CFEAFF4E0EE9260F0EEA22EECF0E
:102DE00058F0EDCF59F0EE2A000EEF220150040DFD
:102DF000F3CFE9FFF4CFEAFF4E0EE9260F0EEA22E9
:102E0000EECF5AF0EECF5BF0EECF5CF0EFCF5DF09F
:102E100058515C5D59515D591EE200016751000136
:102E2000586F596B010E58190AE1595108E10150C8
:102E3000E66EE66AF00EE66ECEEC02F043E9015073
:102E4000040DF3CFE9FFF4CFEAFF4E0EE9260F0E93
:102E5000EA22EE6AED6A012AACD79D80F250020B9D
:102E600001E0010E586F596B5851591102E0F2926E
:102E7000F288F28E42E9E7CFD9FFE55201EE96F0F3
:102E80002A0EE80403E3E5CFEDFFFBD7E5CFFAFF19
:102E9000E5CFF4FFE5CFF3FFE5CFF5FFE5CFF7FF93
:102EA000E5CFF6FFE5CFC1F1E5CFC0F1E5CFBFF14A
:102EB000E5CFBEF1E5CFEAFFE5CFE9FFE5CFDAFFE9
:102EC0001100D8CFE4FFE0CFE4FFE46EDACFE4FFF7
:102ED000E2CFDAFFE9CFE4FFEACFE4FFF3CFE4FF8C
:102EE000F4CFE4FFE652D9CFE6FFE1CFD9FF81E985
:102EF00043E89E50400B01E0010E00015E6F5F6BE6
:102F00005E515F1113E09E9CC350016E026AE66A37
:102F1000010EE66EC450E66EE66A4DEC0FF0FE0E52
:102F2000E350012641E9E55002229D8CF28C44E9F0
:102F3000E7CFD9FFE552E5CFF4FFE5CFF3FFE5CFCB
:102F4000EAFFE5CFE9FFE5CFDAFFE550E5CFE0FFA7
:102F5000E5CFD8FF1000D9CFE6FFE1CFD9FF81E957
:102F600041E8016A65EC02F058EC05F0F2EC05F07E
:102F700079EC03F049EC10F012EC13F0800EE66EE1
:102F8000960EE66E980EE66EE66A3DEC00F044E9B9
:102F9000B2EC10F04C0EE66E390EE66E2FEC11F02E
:102FA00042E912EC13F0400EE66E4B0EE66E4C0E4C
:102FB000E66EE66A3DEC00F044E9B2EC10F0430E38
:102FC000E66E390EE66E2FEC11F042E912EC13F0CA
:102FD000400EE66E4B0EE66E4C0EE66EE66A3DEC7B
:102FE00000F044E991EC1AF012EC13F0400EE66E9A
:102FF0004B0EE66E4C0EE66EE66A3DEC00F044E9E0
:10300000016A015001016D6F6E6B040ED8906EBFA6
:1030100003D06D5D000E6E5959E20150030DF3CFE0
:10302000E9FFF4CFEAFF420EE9260F0EEA22020E74
:10303000E926000EEA22EF50F36EF46A020EF3184E
:1030400001E1F45021E0010EF3183EE1F4503CE1BF
:10305000B2EC10F0360EE66E390EE66E2FEC11F083
:1030600042E90150E66EE66AE6EC11F042E912EC44
:1030700013F0400EE66E4B0EE66E4C0EE66EE66A00
:103080003DEC00F044E920D0B2EC10F0290EE66EE1
:10309000390EE66E2FEC11F042E90150E66EE66A59
:1030A000E6EC11F042E912EC13F0400EE66E4B0E26
:1030B000E66E4C0EE66EE66A3DEC00F044E9015027
:1030C000E66E7CEC15F041E9012A9BD7400EE66ED6
:1030D0004B0EE66E4C0EE66EE66A3DEC00F044E9FF
:1030E000AAEC11F043EC04F000016051F36EF46AB5
:1030F000010EF31801E1F4500BE0FE0EF318F2E1BB
:10310000F450F0E1010EE66E0FEC00F041E9EAD771
:063110008FEC19F0E7D777
:0A3116000001FA2BFA5101016D6F60
:103120006E6B3C0E6D1901E0F9D06E5101E0F6D0E6
:103130000001FB2BFA6BFB5101016D6F6E6B3C0EB6
:103140006D1901E0EBD06E5101E0E8D00001FC2BDD
:10315000FB6BFC5101016D6F6E6B180E6D1901E078
:10316000DDD06E5101E0DAD00001FD2BFC6BFD518A
:103170000101776F786B1D0E77190CE178510AE128
:103180000001FE510101796F7A6B020E791901E19C
:103190007A5102E0000E01D0010E756F766B755109
:1031A000761112E0040EE66EE66A0001FF51E66E4B
:1031B000E66A14EC0FF0E552E5CF7CF1E7CF7BF146
:1031C00001017B517C1102E1000E01D0010E736FF1
:1031D000746B735174111EE10001FD5101017F6F89
:1031E000806B1E0E7F190CE180510AE10001FE5137
:1031F0000101816F826B020E811901E1825102E0AF
:10320000000E01D0010E7D6F7E6B7D517E1102E1BB
:10321000000E01D0010E716F726B7151721154E189
:103220000001FD510101856F866B1F0E851942E17A
:10323000865140E10001FE5101018D6F8E6B040E3D
:103240008D1901E18E510CE00001FE5101018F6FDB
:10325000906B060E8F1901E1905102E0000E01D033
:10326000010E8B6F8C6B8B518C110CE10001FE51A8
:103270000101916F926B090E911901E1925102E0E7
:10328000000E01D0010E896F8A6B89518A110CE101
:103290000001FE510101936F946B0B0E931901E134
:1032A000945102E0000E01D0010E876F886B8751A8
:1032B000881102E1000E01D0010E836F846B8351EF
:1032C000841102E1000E01D0010E6F6F706B6F511F
:1032D00070110CE10001FD510101956F966B200EFC
:1032E000951901E1965102E0000E01D0010E6D6FBB
:1032F0006E6B6D516E1104E00001FE2B010EFD6F2F
:103300000001FE5101016D6F6E6B0D0E6D1906E12E
:0E3310006E5104E10001FF2B010EFE6F120052
:02331E00D9CF05
:10332000E6FFE1CFD9FF81E942E801016951016E71
:103330006851026EE66AE66A08EC11F042E9A60EF0
:10334000E66E390EE66E2FEC11F042E90001FC51F9
:10335000E66EE66AE6EC11F042E9A30EE66E390E7F
:10336000E66E2FEC11F042E90001FB51E66EE66AD1
:10337000E6EC11F042E9A30EE66E390EE66E2FEC94
:1033800011F042E90001FA51E66EE66AE6EC11F04E
:1033900042E99E0EE66E390EE66E2FEC11F042E920
:1033A000E66A0E0EE66E08EC11F042E9E80EE66EF3
:1033B000030EE66EE66AE66AD1C0E6FFD2C0E6FF1B
:1033C000D3C0E6FFD4C0E6FF62EC0EF0E552E5CFD5
:1033D00070F1E5CF6FF1E5CF6EF1E7CF6DF16DC123
:1033E000E6FF6EC1E6FFE6EC11F042E9990EE66EEB
:1033F000390EE66E2FEC11F042E90150E66E0250F4
:10340000E66E08EC11F042E943E9E7CFD9FF12007C
:1034100012008D0EE66E390EE66E2FEC11F042E9C9
:103420000A0EE66EE66AC9C0E6FFCAC0E6FF26ECF1
:103430000EF0E6EC11F042E91200810EE66E390E54
:10344000E66E2FEC11F042E90A0EE66EE66ACBC09A
:10345000E6FFCCC0E6FF26EC0EF0E6EC11F042E908
:103460001200750EE66E390EE66E2FEC11F042E991
:103470000A0EE66EE66ACDC0E6FFCEC0E6FF26EC99
:103480000EF0E6EC11F042E91200020E00016119A3
:1034900001E1625109E0010E611901E1625104E0AC
:1034A000615106E1625104E1612B000E62231200BA
:1034B000EF0EE66E0FEC00F041E912001200D9CFDA
:1034C000E6FFE1CFD9FF81E942E8000161516211D5
:1034D00043E9E7CFD9FF1200AAEC11F0690EE66EBE
:1034E000390EE66E2FEC11F042E912EC13F046ECC7
:1034F00002F0010EE66E0FEC00F041E91200AAECBA
:1035000011F05D0EE66E390EE66E2FEC11F042E919
:1035100065C0E6FF66C0E6FFE6EC11F042E912EF97
:0235200013F0A6
:0E352200D9CFE6FFE1CFD9FF81E949E80F01DB
:10353000406B016A015001016D6F6E6B040ED890F3
:103540006EBF03D06D5D000E6E595EE20150400DFE
:10355000F3CF6DF1F4CF6EF1FF0E6D17000E6E1705
:103560000150030DF3CFE9FFF4CFEAFF420EE92645
:103570000F0EEA226DC1EEFF6EC1EDFF0150030D8B
:10358000F3CFE9FFF4CFEAFF420EE9260F0EEA225D
:10359000EECF6DF1EFCF6EF13F0E6D27000E6E2373
:1035A0006DC1E6FF6EC1E6FF5BEC14F042E9E66E2A
:1035B0000150030DF3CFE9FFF4CFEAFF420EE926F5
:1035C0000F0EEA22020EE926000EEA22E552E7502B
:1035D000EF6E0150030DF3CFE9FFF4CFEAFF420E87
:1035E000E9260F0EEA22020EE926000EEA22EF502B
:1035F00001016D6F6E6BAA0E6D1901E16E5102E053
:103600000F01402B012A96D70F01445101016D6F24
:103610006E6B010E6D1901E16E5104E075EC13F053
:1036200080DF6BD0400EE66E000EE66E0F0EE66E8B
:1036300042CFE6FF43CFE6FF27EC14F045E93C0E0E
:10364000E66E000EE66E0F0EE66E4CEC08F043E9F7
:10365000F350026EF450036E046A056A0F013D5187
:1036600001013DCF6EF16D6B6D5104126E5105126B
:103670000F013E510412000E05120450021806E11B
:103680000550031803E10051416F03D075EC13F0AE
:1036900048DFB2EC10F01F0EE66E390EE66E2FEC2E
:1036A00011F042E90F01415101016F6F706B0F0181
:1036B0004051F36EF46AF35001016F5D6D6FF45089
:1036C00070596E6F6DC1E6FFE66EE6EC11F042E9EF
:1036D0001C0EE66E390EE66E2FEC11F042E90F017A
:1036E0004151E66EE66AE6EC11F042E9150EE66E2F
:1036F000390EE66E2FEC11F042E94AE9E7CFD9FF27
:023700001200B5
:0E370200D9CFE6FFE1CFD9FF84E944E807EC18
:1037100000F0800EE66E080EE66EE5EC1DF042E964
:1037200000EBE6FF0250E66ED6EC1CF042E9F350E7
:10373000046EF450056EFF0E0414066E010105EBD5
:103740006FF1706B6FC16DF16E6B6DBF6E696D5116
:10375000076E000EF36EF46AF4340750F41806E6B0
:10376000F350075C000E07BEFF0EF45404E306504E
:10377000F36EF46A09D007EB6DF16E6B6DBF6E6985
:103780006DC1F3FF6EC1F4FF45E9E7CFD9FF120029
:10379000D9CFE6FFE1CFD9FF85E941E9E7CFD9FFEE
:1037A0001200D9CFE6FFE1CFD9FF88E941E8086AE6
:1037B000085001016D6F6E6B400ED8906EBF03D044
:1037C0006D5D000E6E5902E2082AF2D742E9E7CF9A
:1037D000D9FF1200D9CFE6FFE1CFD9FF88E941E94F
:1037E000E7CFD9FF1200D9CFE6FFE1CFD9FF86E9B5
:0837F00041E9E7CFD9FF120007
:0837F800FB0EE3CFF6FFFC0E0F
:10380000E3CFF7FFFD0EE3CFF8FFFE0EE3CFE9FFB6
:10381000FF0EE3CFEAFFE9CFF3FFEACFF4FF0900A1
:10382000F5CFEFFFEE66FBD71200D9CFE6FFDACF78
:10383000E6FFFA0EE3CFD9FFFB0EE3CFDAFFFC0E73
:10384000E3CFE9FFFD0EE3CFEAFFE9CFF3FFEACFD5
:10385000F4FFF80EE35003E1F90EE3500BE0F80E2D
:10386000E30602E2F90EE306DECFEFFFEE66F1D7E4
:10387000DD52EFD7FF0EE3CFDAFFE552FF0EE3CFC5
:10388000D9FFE5521200FB0EE3CFF6FFFC0EE3CFAB
:10389000F7FFFD0EE3CFF8FFFE0EE3CFE9FFFF0ECB
:1038A000E3CFEAFFE9CFF3FFEACFF4FFF90EE350ED
:1038B00003E1FA0EE3500CE0F90EE30602E2FA0E21
:1038C000E3060900F5CFEFFFEE66F0D70A00EED76A
:0238D0001200E4
:0E38D200202020202020202020202020202028
:1038E000202020202020004C4344756E69000044B5
:1038F0006973706C61793A2000004C45534520454E
:1039000050524F4D0A00466F726D6174696E6720A8
:103910002E2E2E000020467265650A002F000045FD
:103920004550524F4D3A200000446576656C4F5328
:10393000206174200000466C6173684653206174F6
:10394000200000466C61736846530000446576654C
:103950006C4F532D31362076302E310000455252B7
:103960004F5220202020200A002020524541445957
:103970002020200A002B31322C3020202020200A49
:10398000002B20352C3020202020200A002B203333
:103990002C3320202020200A004D487A00002020CF
:0C39A0002000003A000055703A200000A2
:0439AC00D9CFE6FF8A
:1039B000DACFE6FFE1CFD9FFE2CFDAFF84E92EECE0
:1039C0001EF0C580C5A003D0FDD7C5B0FED7A1B6F7
:1039D00039D001EBE6FF51D804E0C584C5B4FED769
:1039E0001BD0C5BC3AD000EBE6FF47D804E0C58445
:1039F000C5B4FED711D0C5BC2BD0C582C5A203D09B
:103A0000FDD7C5B2FED7A1B61DD00128E66E35D8C8
:103A100005E0C584C5B4FED7FD0E23D0C5BC14D0C7
:103A2000C586C5B6FED7C58AC588C5A803D0FDD74B
:103A3000C5B8FED7C584C5A403D0FDD7C5B4FED78D
:103A4000A1A612D0F3680ED0C584C5B4FED703D0AA
:103A5000C584C5B4FED7FE0E04D0C584C5B4FED758
:103A6000FE0EF36EF46803D0C950F36EF46A41E9B8
:103A7000E5CFDAFFE7CFD9FF120091EC1DF041E965
:043A80000009120027
:0C3A8400060EF66E000EF76E000EF86ED7
:103A900001010900F550B36F0900F550B46F03E15F
:103AA000B36701D03DD00900F550AE6F0900F55065
:103AB000AF6F0900F550B06F09000900F550E96ECD
:103AC0000900F550EA6E090009000900F550B16FD0
:103AD0000900F550B26F09000900F6CFB5F1F7CF34
:103AE000B6F1F8CFB7F1AEC1F6FFAFC1F7FFB0C185
:103AF000F8FF0101B15302E1B25307E00900F550AC
:103B0000EE6EB107F8E2B207F9D7B5C1F6FFB6C15C
:103B1000F7FFB7C1F8FF0101B307000EB45BBFD7D1
:023B2000120091
:0E3B2200D9CFE6FFDACFE6FFE1CFD9FFE2CF41
:103B3000DAFF83E900EBC9FFC6AE02D0FF0E24D046
:103B40000F0EC61408080FE00F0EC6140B080BE08A
:103B5000C6889EA6FED7C750040B03E1C750010BD1
:103B600010E0000E11D00F0EC614080804E00F0E6E
:103B7000C6140B0809E1C7B0FED72EEC1EF0C5AC89
:103B800002D0FE0E01D0000E41E9E5CFDAFFE7CF0B
:043B9000D9FF120047
:0C3B9400FF0EE3500F015F6FEE0E02D039
:103BA000F20E0000E76EE72ED3EF1DF00C0E0F01B2
:103BB0005E6FE76AE72EDAEF1DF05E2FD9EF1DF09A
:0A3BC0000F015F2FD0EF1DF012007F
:063BCA00D9CFE6FFDACFBF
:103BD000E6FFE1CFD9FFE2CFDAFF84E93F0EC71657
:103BE000C66AC56A0150C6120050C71294869488EE
:0E3BF000C68A41E9E5CFDAFFE7CFD9FF120020
:023BFE00F36A68
:103C0000F46AFF0EE124E96EFF0EE220EA6EED6633
:103C100007D01F0EEF6404D07F0EEF6001D0F32AAF
:023C2000120090
:0E3C2200600EF36E00EE00F00F0E01D81200DF
:103C3000EA6002D0EE6AFCD7F350E9601200EE6A47
:023C4000FCD7AF
:0E3C42001EEE00F02EEE00F0F86A42EC1DF0CF
:0C3C500009EC00F0ABEC17F0FBD7120001
:043C5C001F0EC5145E
:0A3C6000FDE1C750040BFAE1120069
:063C6A0001020408102015
:053C7000408002040881
:020000040030CA
:0100010008F6
:0100020019E4
:010003001EDE
:010005008179
:01000600C039
:00000001FF
