:020000040000FA
:0600000095EF1BF0120059
:020006000000F8
:06000800E7EF14F0120006
:02000E001200DE
:0600180004EF16F01200D7
:02001E000001DF
:10002000EB510101D16FD26BAA0ED11901E1D2516E
:1000300002E06CD904D00001EC2B000EED23FC5043
:10004000800B01E0010E0101D16FD26BD151D211B1
:1000500005E00001F82B000EF9230DD0FC50400BF9
:1000600001E0010ED16FD26BD151D21104E0000139
:10007000F62B000EF723D050100B01E0010E01010A
:10008000D16FD26BD151D21105E0D0980001F42B81
:10009000000EF523D050020B01E0010E0101D16FDB
:1000A000D26BD151D21105E0D0920001EE2B000E9F
:1000B000EF23D050010B0101D16FD26BD151D2117E
:1000C00005E0D0900001F02B000EF123D050080B7A
:1000D00001E0010E0101D16FD26BD151D21105E0C7
:1000E000D0960001F22B000EF3231200D9CFE6FFC9
:1000F000E1CFD9FF81E946E8016A026A070ED8908C
:1001000002BE03D0015C000E025811E201EBE9FFD0
:1001100002EBEAFFD890E936EA36000EE926020E35
:10012000EA22EE6AED6A012A000E0222E7D70201F6
:100130000E6B0F6B0F0E146F380E106F5B0E116F7E
:10014000120E126F136B016A026A020ED89002BE81
:1001500003D0015C000E025827E201EBE9FF02EB3D
:10016000EAFFD890E936EA36D890E936EA364E0EFC
:10017000E9260F0EEA22EE6AED6A01EBE9FF02EBD7
:10018000EAFFD890E936EA36D890E936EA364E0EDC
:10019000E9260F0EEA22020EE926000EEA22EE6898
:1001A000ED68012A0222D1D7016A026A020ED890B4
:1001B00002BE03D0015C000E025827E201EBE9FF0A
:1001C00002EBEAFFD890E936EA36D890E936EA360B
:1001D000560EE9260F0EEA22EE6AED6A01EBE9FF00
:1001E00002EBEAFFD890E936EA36D890E936EA36EB
:1001F000560EE9260F0EEA22020EE926000EEA222A
:10020000EE68ED68012A0222D1D70001FD6BFC6B7C
:10021000FB6BFE6BFA6BFF6B056A066A0A0ED890E1
:1002200006BE03D0055C000E06582CE2036A046A81
:10023000140ED89004BE03D0035C000E04581EE2D6
:1002400005EBD1F106EBD2F10101140ED203F3CF8D
:10025000D2F1D103F3CFD1F1F450D227000ED12740
:10026000010ED2230350D125E96E0450D221EA6E4B
:10027000200EEF6E032A000E0422DAD7052A000EA4
:100280000622CCD70101CC6BCD6BCE6BCF6B010EB0
:10029000D06F47E9E7CFD9FF12008F0ED314700952
:1002A000D36ED3829B8C9B8E7896C30EC2143C096E
:1002B000C26EC198C19AC08EC70EC0143809C06EF4
:1002C000F80EC0140609C06EC280D58CD59AF80EFF
:1002D000D5140209D56ED596D59ECF0ECD14000942
:1002E000CD6ECD8ECD96CD9CCD84CD92CD90D08E41
:1002F000F1849F809E929F9C9F96F294F28A9E909A
:100300009D809E9C9D8CF28EF28C1200D9CFE6FFD0
:10031000E1CFD9FF81E941E80001676BAA0EEB6FDD
:10032000EC6BED6BF06BF16BEE6BEF6BF46BF56BF5
:10033000F26BF36BF86BF96BF66BF76BFE0E656F98
:10034000666B606F616B626B9EEC06F0FBC1D1F077
:10035000FCC1D2F0FDC1D3F0FEC1D4F0040EE66EB4
:10036000E66AE66AE66AFBC1E6FFFCC1E6FFFDC19C
:10037000E6FFFEC1E6FF400EE66E420EE66E0F0E91
:10038000E66EE66A55EC0DF074EC0EF0E552E5CF42
:10039000D8F0E5CFD7F0E5CFD6F0E7CFD5F0000124
:1003A000020ED96FE66A080EE66EE66AE66A100E7D
:1003B000E66EE66AE66AE66AD1C0E6FFD2C0E6FF0C
:1003C000D3C0E6FFD4C0E6FFE80EE66E030EE66E8D
:1003D000E66AE66A74EC0EF055EC0DF055EC0DF0A3
:1003E000E552E5CFD4F1E5CFD3F1E5CFD2F1E7CFB8
:1003F000D1F1D1C158FFD2C159FF0001D951E66EE8
:10040000E66A58CFE6FF59CFE6FF19EC0DF0E5524A
:10041000E5CF5DFFE7CF5CFF0001EA6BE96BDD6BC9
:10042000DE6BDF6BE06BE16BE26B016A0150010197
:10043000D16FD26B200ED890D2BF03D0D15D000E09
:10044000D2591AE20150030DF3CFE9FFF4CFEAFFCE
:10045000680EE926000EEA22EE52EE6AED6A0150BD
:10046000030DF3CFE9FFF4CFEAFF680EE926000E93
:10047000EA22EF6A012ADAD70001C86BCF6BD06B92
:10048000CD6BCE6BC96BCA6BCB6BCC6B070EE86FB9
:10049000E76BE66B010E676FD58ECD8042E9E7CF43
:1004A000D9FF1200D9CFE6FFE1CFD9FF84E90001DF
:1004B000C8510101D16FD26B200ED890D2BF03D0AA
:1004C000D15D000ED25902E3000E21D00250E66E3B
:1004D0000001C851030DF3CFE9FFF4CFEAFF680E26
:1004E000E926000EEA22E552E750EF6EC851030DEF
:1004F000F3CFE9FFF4CFEAFF680EE926000EEA2207
:10050000EE5200EBEEFF01EBEDFFC82B010E41E9CF
:10051000E7CFD9FF1200D9CFE6FFE1CFD9FF81E9BC
:1005200041E8016A01500101D16FD26B1F0ED890D2
:10053000D2BF03D0D15D000ED2594AE2010E012490
:10054000E96EEA6AEA36030EEA02F3CFEAFFE9024D
:10055000F3CFE9FFF450EA26680EE926000EEA22FE
:10056000EF50E66E0150030DF3CFE9FFF4CFEAFF41
:10057000680EE926000EEA22E552E750EF6E010E02
:100580000124E96EEA6AEA36030EEA02F3CFEAFFD3
:10059000E902F3CFE9FFF450EA26680EE926000EDF
:1005A000EA22EECFD1F1EECFD2F1EFCFD3F101506D
:1005B000030DF3CFE9FFF4CFEAFF680EE926000E42
:1005C000EA22EE52D2C1EEFFD3C1EDFF012AAAD733
:1005D0000001C56BC66BC76BC8510101D16FD26BEF
:1005E000D23507E2D1510008000ED25502E20001D7
:1005F000C80742E9E7CFD9FF1200D9CFE6FFE1CF24
:10060000D9FF81E941E80001DD2B000EDE23DF2365
:10061000E0236851F36EF46AE868F31801E1F450DE
:1006200001E1E2D0020EF31801E1F45001E1CED075
:10063000130EF31801E1F45001E1ECD0120EF3189F
:1006400001E1F45001E1E6D0F10EF31801E1F450BC
:1006500001E19AD0F00EF31801E1F45001E1DAD093
:10066000100EF31801E1F45040E0010EF31801E11F
:10067000F4500AE0F35001E0CDD0F45001E0CAD0CC
:10068000E32B000EE423C6D043EC17F00001E95140
:10069000EA6FDDC0E1F0DEC0E2F0E66AE66AC80EAD
:1006A000E66E420EE66EDDC0E6FFDEC0E6FFDFC0AE
:1006B000E6FFE0C0E6FF30EC0CF0E3C0E6FFE4C08C
:1006C000E6FFB2EC0BF09BEC0DF0C5EC0EF057EC36
:1006D0000CF041E9E7500001E56FE96BDD6BDE6B83
:1006E000DF6BE06BE36BE46B95D06951016E130E29
:1006F000F36EF46AF350011805E1F45003E15EEC87
:100700000FF088D0270EF36EF46AF350011805E15C
:10071000F45003E145EC10F07DD00150E66EE66A3E
:1007200073EC1BF042E9F3CFD1F1F4CFD2F1010128
:10073000F350F4106FE00101CC510101D16FD26B85
:10074000D23507E2D1511308000ED25502E25EEC19
:100750000FF00150E66E0101CD51140DF3CFD1F130
:10076000F4CFD2F1000E0101D127010ED2230101F5
:10077000CC51CC2B0101EA6AD125E96ED251EA2293
:10078000E552E750EF6E46D0030E691901E16A5158
:1007900042E0020E691901E16A513DE0010E69195A
:1007A00001E16A510AE0695135E16A5133E1B3DE92
:1007B000000EE66EE66A010E05D0ADDE000EE66EB6
:1007C000E66A020EE66E6EDE43E925D0E7510101CE
:1007D000D16FD26B010ED1191DE1D2511BE1000185
:1007E000E92BADEC11F016D02F0EE66E350EE66E4D
:1007F000DBEC0FF042E969C0E6FF6AC0E6FF81EC7E
:1008000010F042E92C0EE66E350EE66EDBEC0FF0D2
:1008100042E901D080DE42E9E7CFD9FF12000201B0
:10082000146B14510F0BF36EF346F346C30EC21450
:10083000F310C26EC2821200D9CFE6FFE1CFD9FF1A
:1008400087E94CE8010E0B6E0C6A0D6A0E6A0F6A9E
:10085000106A116A126A0101D16FD26BD36BD46B2B
:100860000004D56F000E0158D5511F0B08E001019F
:10087000D890D137D237D337D437E806F9E1010120
:10088000D151076ED251086ED351096ED4510A6E00
:100890000750081009100A1042E007EBD1F108EBED
:1008A000D2F109EBD3F10AEBD4F1D950020FE96E82
:1008B000DACFEAFFEE50D117EE50D217EE50D31731
:1008C000EE50D417D151D211D311D4110DE0D9501B
:1008D0000F0FE96EDACFEAFF0B50EE120C50EE125A
:1008E0000D50EE120E50EE12D9500B0FE96EDACF0A
:1008F000EAFFD890EF36010EEB36020EEB36030E10
:10090000EB36D950070FE96EDACFEAFFD890030E25
:10091000EB32020EEB32010EEB32EF32B9D70FEBB6
:10092000FBF110EBFCF111EBFDF112EBFEF14DE9E7
:10093000E7CFD9FF1200D9CFE6FFE1CFD9FF84E995
:1009400044E806680768056A05500101D16FD26B5B
:100950000050D36FD46BD235D251D41904E6D151A3
:10096000D35DD251D4593DE305500124E96E000E08
:100970000220EA6EEF500618046E0450D36FD46B59
:10098000040ED3C1D1F1D4C1D2F1000A06E00101B5
:10099000D890D137D237E804FBE10101D151041AD4
:1009A0000450080D0450D56FD66B040ED76FD75185
:1009B000D5C1D3F1D6C1D4F106E00101D890D4332A
:1009C000D333E804FBE107500101D319D16FF35091
:1009D000D96BD151F318066EF4500418076E052A2E
:1009E000B3D706EBF3FF07EBF4FF45E9E7CFD9FFF9
:1009F0001200D9CFE6FFE1CFD9FF82E900016051B3
:100A0000F36EF46AE10EF31801E1F45008E0E30E2E
:100A1000F3180BE1F45009E13C0E616F07D0140E9E
:100A2000616F626BEF0E006E04D0616B626B636B83
:100A3000646B6051656F666B0050606F6051F36E60
:100A4000F46A45EC10F041E9E7CFD9FF1200D9CFA5
:100A5000E6FFE1CFD9FF85E948E8D5C0E6FFD6C07B
:100A6000E6FFD7C0E6FFD8C0E6FF020EE66EE66AF4
:100A7000E66AE66A74EC0EF0E552E5CFD4F1E5CF14
:100A8000D3F1E5CFD2F1E7CFD1F10101D151096E18
:100A9000D2510A6ED3510B6ED4510C6E80EB05F01F
:100AA00081EB06F082EB07F083EB08F00550095C60
:100AB00006500A5807500B5808500C580EE2D950EF
:100AC000050FE96EDACFEAFF0950EE5E0A50EE5AE2
:100AD0000B50EE5A0C50EE5AE9D749E9E7CFD9FF4F
:100AE0001200D9CFE6FFE1CFD9FF81E950E802013A
:100AF0001051056E1151066E1251076E1351086E9A
:100B00000E51096E0F510A6E0B6A0C6A09EBE6FF73
:100B10000AEBE6FF0BEBE6FF0CEBE6FF05EBE6FF6F
:100B200006EBE6FF07EBE6FF08EBE6FF55EC0DF002
:100B3000E552E5CFD4F1E5CFD3F1E5CFD2F1E7CF60
:100B4000D1F10101D1510D6ED2510E6ED3510F6E04
:100B5000D451106E02010051056E0151066E076AF4
:100B6000086A0251096E03510A6E0B6A0C6AE66A42
:100B7000040EE66EE66AE66A0DEBE6FF0EEBE6FFB4
:100B80000FEBE6FF10EBE6FF74EC0EF0E552E5CF5D
:100B9000D4F1E5CFD3F1E5CFD2F1E7CFD1F1010127
:100BA000D151016ED251026ED351036ED451046EF5
:100BB000E80EE66E030EE66EE66AE66A01EBE6FF15
:100BC00002EBE6FF03EBE6FF04EBE6FF55EC0DF06E
:100BD000E552E5CFD4F1E5CFD3F1E5CFD2F1E7CFC0
:100BE000D1F1D1C1C9F0D2C1CAF005EBE6FF06EBE5
:100BF000E6FF07EBE6FF08EBE6FF30EC0CF00DEB51
:100C0000E6FF0EEBE6FF0FEBE6FF10EBE6FF30EC46
:100C10000CF0D70EE66EA30EE66EE66A400EE66EA8
:100C2000C5EC0EF0C5EC0EF0BEEC0CF0E552E5CFD5
:100C3000D4F1E5CFD3F1E5CFD2F1E7CFD1F1010186
:100C4000D151016ED251026ED351036ED451046E54
:100C5000E80EE66E030EE66EE66AE66A01EBE6FF74
:100C600002EBE6FF03EBE6FF04EBE6FF55EC0DF0CD
:100C7000E552E5CFD4F1E5CFD3F1E5CFD2F1E7CF1F
:100C8000D1F1D1C1CBF0D2C1CCF009EBE6FF0AEB38
:100C9000E6FF0BEBE6FF0CEBE6FF30EC0CF00DEBA8
:100CA000E6FF0EEBE6FF0FEBE6FF10EBE6FF30ECA6
:100CB0000CF0E10EE66E7A0EE66EBC0EE66E400EAD
:100CC000E66EC5EC0EF0C5EC0EF0BEEC0CF0E55295
:100CD000E5CFD4F1E5CFD3F1E5CFD2F1E7CFD1F134
:100CE0000101D151016ED251026ED351036ED45124
:100CF000046EE80EE66E030EE66EE66AE66A01EB47
:100D0000E6FF02EBE6FF03EBE6FF04EBE6FF55EC44
:100D10000DF0E552E5CFD4F1E5CFD3F1E5CFD2F137
:100D2000E7CFD1F1D1C1CDF0D2C1CEF0016A026AD4
:100D3000036A046A51E9E7CFD9FF1200D9CFE6FF71
:100D4000E1CFD9FF81E944E8016A026A036A046AD3
:100D5000D350700BE842E842E842E842F36EF46A8E
:100D6000070EF31801E1F4503CE0060EF31801E120
:100D7000F45033E0050EF31801E1F4502AE0040EBC
:100D8000F31801E1F45021E0030EF31801E1F450EF
:100D900018E0020EF31801E1F4500FE0010EF31811
:100DA00001E1F45006E0F35022E1F45020E11F0E7F
:100DB00001D0FA0E016E026A18D0F40E016E010E17
:100DC00013D0E80E016E030E0FD0D00E016E070E89
:100DD0000BD0A00E016E0F0E07D0400E016E1F0E3D
:100DE00003D0800E016E3E0E026E036A046A9B50B1
:100DF000400B01E0010E0101D16FD26B010ED11940
:100E000023E1D25121E1040EE66EE66AE66AE66A63
:100E100001EBE6FF02EBE6FF03EBE6FF04EBE6FF88
:100E200074EC0EF0E552E5CFD4F1E5CFD3F1E5CF88
:100E3000D2F1E7CFD1F10101D151016ED251026E51
:100E4000D351036ED451046E01EBFBF102EBFCF1C4
:100E500003EBFDF104EBFEF145E9E7CFD9FF12000A
:100E6000FA0EE66E58EC1BF041E9FA0EE66E58EC0D
:100E70001BF041E9FA0EE66E58EC1BF041E9FA0E60
:100E8000E66E58EC1BF041E9FA0EE66E58EC1BF0EA
:0E0E900041E9FA0EE66E58EC1BF041E9120043
:020E9E00D9CFAA
:100EA000E6FFE1CFD9FF81E945E8016A0150010180
:100EB000D16FD26B140ED890D2BF03D0D15D000E8B
:100EC000D2591EE20150EA6A000FE96E000EEA22D2
:100ED000EF6A0150EA6A140FE96E000EEA22EF6A27
:100EE0000150EA6A280FE96E000EEA22EF6A01500B
:100EF000EA6A3C0FE96E000EEA22EF6A012AD6D7B1
:100F00000001566B040E556F140E546F010E576F8F
:100F1000506B400E516F140E526F540E536F8388F6
:100F20008390839283948396839E839C839A959ED9
:100F3000959C959A95969594959295909598030E73
:100F4000026EE66A5A0EE66E620EE66E020EE66EFD
:100F500027EC05F044E90250E66E1FDB41E9A00EE4
:100F6000E66E8F0EE66E3E0EE66EE66A27EC05F044
:100F700044E90250E66E11DB41E9A00EE66E860EF2
:100F8000E66E010EE66EE66A27EC05F044E90250D3
:100F9000E66E03DB41E9020E026E0250E66EFDDAF8
:100FA00041E967D90009FDE1490EF66E370EF76E8B
:100FB0000800F5CFD1F14E0EF66E370EF76E080031
:100FC000F5500101D111E66EA4D941E952D90009C9
:100FD000FDE1470EF66E370EF76E0800F5CFD1F142
:100FE0004D0EF66E370EF76E0800F5500101D11167
:100FF000E66E8FD941E93DD90009FDE1440EF66E58
:10100000370EF76E0800F550E66E83D941E931D905
:101010000009FDE1460EF66E370EF76E0800F5CFBB
:10102000D1F14C0EF66E370EF76E0800F550010147
:10103000D111E66E6ED941E91CD90009FDE1E66ADD
:10104000210EE66EB1D942E914D90009FDE1200E66
:10105000E66E030EE66EE66AE66A27EC05F044E902
:10106000E66A2FDB41E9036E210EF36EF46AF3505A
:10107000031801E1F45002E0010E3FD0056A05506B
:101080000101D16FD26B040ED890D2BF03D0D15DD5
:10109000000ED25922E2046A0450D16FD26B140EB2
:1010A000D890D2BF03D0D15D000ED25914E20550C2
:1010B000140DF3CFD1F1F4CFD2F1000ED127000EF1
:1010C000D2230450EA6AD125E96ED251EA22200ED9
:1010D000EF6E042AE1D7052AD2D70001506B400EEB
:1010E000516F140E526F540E536F040E556F140E41
:1010F000546F566B010E576F000E46E9E7CFD9FFCC
:101100001200D9CFE6FFE1CFD9FF81E945E8000120
:1011100056510101D16FD26B010ED11903E1D251A9
:1011200001E1A3D00001010E566F026A02500101D5
:10113000D16FD26B000155510101D890D2BF03D0BD
:10114000D15D000ED25901E38ED04B0EF66E370EF4
:10115000F76E0800F5CFD1F10250EA6A500FE96E40
:10116000000EEA22EF50D111056E83D80009FDE18F
:101170000550E66ECED841E9016A01500101D16FF8
:10118000D26B000154510101D890D2BF03D0D15D80
:10119000000ED25966E26DD80009FDE1838E839C72
:1011A0009590959295949596640EE66EE66AE66A39
:1011B000E66A27EC05F044E90250140DF3CFD5F1AF
:1011C000F4CFD6F1000E0101D527000ED623015031
:1011D000EA6AD525E96ED651EA22EF50D36FD46B77
:1011E000040ED76FD751D3C1D1F1D4C1D2F106E0EB
:1011F0000101D890D233D133E804FBE10101D15190
:10120000036E0250140DF3CFD2F1F4CFD3F1000EE0
:10121000D227000ED3230150EA6AD225E96ED351BA
:10122000EA22EFCFD1F10F0ED115046E0350E66E16
:10123000B4D941E9900EE66E010EE66EE66AE66A02
:1012400027EC05F044E90450E66EA7D941E90A0EFF
:10125000E66EE66AE66AE66A27EC05F044E9012AEA
:101260008CD7022A63D70001566B46E9E7CFD9FF36
:101270001200D9CFE6FFE1CFD9FF81E944E8016A46
:10128000026A036A046A9586958495829580838CA8
:10129000839EB9D9026E900EE66E010EE66EE66A86
:1012A000E66A27EC05F044E9AED9036E025001016D
:1012B000D36FD46B040ED3C1D1F1D4C1D2F1000AE3
:1012C00006E00101D890D137D237E804FBE10350A2
:1012D0000101D56FD66BD151D511016E800E01146D
:1012E000046E800EF36EF46AF35004180DE1F450AE
:1012F0000BE1900EE66E010EE66EE66AE66A27ECFA
:1013000005F044E9010E01D0000E45E9E7CFD9FF11
:101310001200D9CFE6FFE1CFD9FF82E943E80050C0
:10132000026E02500101D36FD46B040ED56FD551FC
:10133000D3C1D1F1D4C1D2F106E00101D890D233AA
:10134000D133E804FBE10101D151036E0F0E021409
:10135000046E9590959295949596839E839C640EC9
:10136000E66EE66AE66AE66A27EC05F044E90350B1
:10137000E66E13D941E9900EE66E010EE66EE66A5E
:10138000E66A27EC05F044E90450E66E06D941E927
:101390000A0EE66EE66AE66AE66A27EC05F044E9BC
:1013A00044E9E7CFD9FF1200D9CFE6FFE1CFD9FF5B
:1013B00083E943E801500101D36FD46B040ED56F6C
:1013C000D551D3C1D1F1D4C1D2F106E00101D890F9
:1013D000D233D133E804FBE10101D151036E0F0E8A
:1013E0000114046E4B0EF66E370EF76E0800F550C2
:1013F0000010056E3EDF0009FDE10550E66E89DF55
:1014000041E937DF0009FDE1838E839C9590959239
:1014100095949596640EE66EE66AE66AE66A27ECAF
:1014200005F044E90350E66EB8D841E9900EE66E47
:10143000010EE66EE66AE66A27EC05F044E9045020
:10144000E66EABD841E90A0EE66EE66AE66AE66A3F
:1014500027EC05F044E944E9E7CFD9FF1200D9CFE2
:10146000E6FFE1CFD9FF83E942E801500101D36FE4
:10147000D46B040ED56FD551D3C1D1F1D4C1D2F103
:1014800006E00101D890D233D133E804FBE1010139
:10149000D151036E0F0E0114046E4A0EF66E370E14
:1014A000F76E0800F5500010E66E33DF41E9E1DE2B
:1014B0000009FDE1838E839C959095929594959675
:1014C000640EE66EE66AE66AE66A27EC05F044E931
:1014D0000350E66E62D841E9900EE66E010EE66EAC
:1014E000E66AE66A27EC05F044E90450E66E55D852
:1014F00041E90A0EE66EE66AE66AE66A27EC05F05E
:1015000044E943E9E7CFD9FF1200D9CFE6FFE1CFA5
:10151000D9FF81E941E8016A01500101D16FD26B25
:10152000140ED890D2BF03D0D15D000ED25922E262
:101530000150EA6A000FE96E000EEA22200EEF6EFB
:101540000150EA6A140FE96E000EEA22200EEF6ED7
:101550000150EA6A280FE96E000EEA22200EEF6EB3
:101560000150EA6A3C0FE96E000EEA22200EEF6E8F
:10157000012AD2D77EDE0009FDE1440EF66E370E59
:10158000F76E0800F550E66EC4DE41E972DE000930
:10159000FDE142E9E7CFD9FF1200D9CFE6FFE1CF65
:1015A000D9FF82E9838A0050F36EF350080B02E002
:1015B000838601D083960050F36EF350040B02E053
:1015C000838401D083940050F36EF46AF350020BCD
:1015D00002E0838201D083920050F36EF46AF350EC
:1015E000010B02E0838001D08390900EE66E010E25
:1015F000E66EE66AE66A27EC05F044E9839A41E97B
:10160000E7CFD9FF1200D9CFE6FFE1CFD9FF81E9BB
:1016100041E8016A838A900EE66E010EE66EE66A84
:10162000E66A27EC05F044E98350080B01E0010E5F
:101630000101D16FD26B010ED11903E1D25101E149
:10164000012A0150D16FD26BD890D137D237D15106
:10165000016E8350040B01E0010ED16FD26B010EBD
:10166000D11903E1D25101E1012A0150D16FD26BAE
:10167000D890D137D237D151016E8350020B01E09F
:10168000010ED16FD26B010ED11903E1D25101E1EC
:10169000012A0150D16FD26BD890D137D237D151B6
:1016A000016E8350010BD16FD26B010ED11903E192
:1016B000D25101E1012A839A015042E9E7CFD9FFD3
:1016C0001200D9CFE6FFE1CFD9FF82E943E8026AF1
:1016D000036A046A4B0EF66E370EF76E0800F5507B
:1016E0000010E66E16DE41E9C4DD0009FDE1838CE1
:1016F000838E9586958495829580900EE66E010E78
:10170000E66EE66AE66A27EC05F044E97CDF036EE4
:10171000900EE66E010EE66EE66AE66A27EC05F0CC
:1017200044E971DF046E03500101D36FD46B040EE2
:10173000D3C1D1F1D4C1D2F1000A06E00101D890A1
:10174000D137D237E804FBE104500101D56FD66BE5
:10175000D151D511026E839C839E025044E9E7CF9C
:04176000D9FF12009B
:0C176400D89801D0D88850E8D9CFE6FF13
:10177000DACFE6FFE1CFD9FFE2CFDAFF94E9089EA6
:1017800007E701AE05D0006C011EE86A0122088E51
:1017900081EB0CF080EB0BF00A6A096A8E0E0D6E7D
:1017A0000E6AD3EF0BF00C500B100A10091055E025
:1017B0000EBE4DD00CBE0CD00D500E1048E0D8908F
:1017C00009360A360B360C360D06D8A00E06F2D7AF
:1017D0000E5031E10D282FE009AE11D07F0E091413
:1017E00002E10AA00CD00A2AE86A0B220C2207E3C5
:1017F000D8800C320B320A320D2A0D281CE00D5015
:1018000026E08AEB00F08BEB01F00C34026E0D3019
:10181000036E0232039E08BE038EE552E5CFDAFF67
:10182000E7CFD9FF4EE912007F0E036EFF0E026E66
:10183000016E006EF2D77F0E08BEFF0E036E02D05F
:101840007F0E036E800E026E016A006AE6D708AE54
:1018500004D0800E036E026AF7D7036A026AF4D7D7
:10186000D89801D0D8884EE8D9CFE6FFDACFE6FF86
:10187000E1CFD9FFE2CFDAFF94E9089E0BE703AE90
:1018800009D0006C011E021E031EE86A012202221A
:101890000322088E83EB0CF082EB0BF081EB0AF055
:1018A00080EB09F09E0E0D6E0E6AD3EF0BF045E84B
:1018B000D9CFE6FFDACFE6FFE1CFD9FFE2CFDAFFFB
:1018C0008BE9086AA8EC0CF008B66BEF0CF008AADC
:1018D0000AD008BC03D07F0E006E1BD0800E006EB5
:1018E00018D0006A16D008B8FCD7870E0360F1D76D
:1018F0007E0E0364F6D7860E035C04E0D8900232B5
:10190000032AF9D708AC03D0026C02AEEAD782EB07
:1019100000F0E552E5CFDAFFE7CFD9FF48E9120042
:101920000636073602E30884087E06E10880076A67
:10193000066A056A046A1200072803E0D8800632A6
:101940001200D890063202E10882120008861200C6
:101950000236033602E3088C087E06E10888036A33
:10196000026A016A006A1200032803E0D88002328A
:101970001200D8900232EAE1088A120045E8D9CF75
:10198000E6FFDACFE6FFE1CFD9FFE2CFDAFF8BE95E
:10199000086AA8EC0CF008B6D2EF0CF008AA0FD039
:1019A00008BC07D07F0E036EFF0E026E016E006E44
:1019B0002DD0800E036E01D0036A000EF6D708B852
:1019C000FBD7076A9F0E0360EBD77E0E0364F4D744
:1019D0009E0E035C07E0D8900232013200320732DB
:1019E000032AF6D708AC0AD0076C001E011E021E9F
:1019F000E86A00220122022202AEDED782EB03F067
:101A000081EB02F080EB01F087EB00F0E552E5CFCF
:101A1000DAFFE7CFD9FF45E9120043E8D9CFE6FF67
:101A2000DACFE6FFE1CFD9FFE2CFDAFF89E9066A34
:101A30001200F3DF068003D0F0DF01D00682056AD2
:101A4000046A100EE76ED890023603360436053667
:101A50000050045C0150055805E30050045E01503D
:101A6000055A022AE72EF0D706B2120006B006D0B9
:101A700084EB00F085EB01F006A004D082EB00F0CF
:101A800083EB01F0E552E5CFDAFFE7CFD9FF45E977
:101A9000120045E8D9CFE6FFDACFE6FFE1CFD9FF64
:101AA000E2CFDAFF8FE90C6A1200F3DF0C8003D07B
:101AB000F0DF01D00C820B6A0A6A096A086A200EFC
:101AC000E76ED890043605360636073608360936EE
:101AD0000A360B360050085C0150095802500A586B
:101AE00003500B5809E30050085E0150095A025098
:101AF0000A5A03500B5A042AE72EE4D70CB21200FC
:101B00000CB00AD088EB00F089EB01F08AEB02F010
:101B10008BEB03F00CA008D084EB00F085EB01F018
:101B200086EB02F087EB03F0E552E5CFDAFFE7CF73
:101B3000D9FF49E912004AE8D9CFE6FFDACFE6FF3C
:101B4000E1CFD9FFE2CFDAFF94E9086A90EC0CF01C
:101B5000A8EC0CF008B614EF0CF008A205D008BAF7
:101B600014EF0CF01BEF0CF008BA27EF0CF008A0F4
:101B700005D008B814EF0CF027EF0CF008B81BEFF5
:101B80000CF00E6A7F0E07240D6EE86A0E220350D9
:101B90000D5EE86A0E5A1A0E0F6E076A096A0A6A23
:101BA0000B6A0C6A0050045E0150055A0250065A36
:101BB000000E075A09E70050042601500522025082
:101BC0000622000E072201D0098AD8900436053675
:101BD00006360736D89009360A360B360C360F2EE5
:101BE000E1D7065005100410D8A4098AD3EF0BF0F2
:101BF00043E8D9CFE6FFDACFE6FFE1CFD9FFE2CF66
:101C0000DAFF89E9066A1200F3DF068001D0F0DF0F
:101C100001AE11EF0EF0006C011EE86A012206B061
:101C2000067E03AE19EF0EF0026C031EE86A032273
:101C3000067E1EEC0DF003BE3BEF0EF006AE08D0A4
:101C4000026C031EE86A0322046C051EE86A052282
:101C500006B006D084EB00F085EB01F006A004D0BE
:101C600082EB00F083EB01F0E552E5CFDAFFE7CF3E
:101C7000D9FF45E9000C06BE20EF0EF0E9DFFF0CAE
:101C800044E8D9CFE6FFDACFE6FFE1CFD9FFE2CFD4
:101C9000DAFF8AE980EB04F081EB05F082EB06F0D5
:101CA00002500402F450016EF350006E0350076EB0
:101CB0000502F450036EF350026E07500402F35015
:101CC0000126F4500222E86A032206500502F3506E
:101CD0000126F4500222E86A0322E552E5CFDAFF3A
:101CE000E7CFD9FF46E9000C44E8D9CFE6FFDACFC9
:101CF000E6FFE1CFD9FFE2CFDAFF8EE980EB08F013
:101D000081EB09F082EB0AF083EB0BF00450080240
:101D1000F350006EF450016E04500902F350012696
:101D2000000EF420026E04500A02F3500226000E48
:101D3000F420036E04500B02F350032605500802F2
:101D4000F3500126F4500222000E0322055009022E
:101D5000F3500226F450032205500A02F3500326E2
:101D600006500802F3500226F450032206500902DE
:101D7000F350032607500802F3500326E552E5CF3F
:101D8000DAFFE7CFD9FF48E9000C4AE8D9CFE6FFF0
:101D9000DACFE6FFE1CFD9FFE2CFDAFF94E9086AB4
:101DA00090EC0CF0A8EC0CF008B614EF0CF008A2C4
:101DB00005D008B814EF0CF01BEF0CF008AA05D002
:101DC00008B014EF0CF01BEF0CF008B002D008A81C
:101DD00002D027EF0CF00E6A035007240D6EE86A5C
:101DE0000E227E0E0D5EE86A0E5A096A0A6A0B6AB6
:101DF0000C6A02500602F4500C6EF3500B6E015048
:101E00000602F3500A26F4500B22000E0C22025058
:101E10000502F3500A26F4500B22000E0C2200504B
:101E20000602F3500926F4500A22000E0B220C225F
:101E300001500502F3500926F4500A22000E0B222D
:101E40000C2202500402F3500926F4500A22000E1C
:101E50000B220C2200500502F4500926000E0A2223
:101E60000B220C2201500402F4500926000E0A2213
:081E70000B220C22D3EF0BF052
:081E78004FEC07F000090AE03D
:101E8000200EE66E030EE66EE66AE66A27EC05F0C3
:101E900044E9F2D7000155510101D16FD26BD1074E
:101EA000000ED25BD1C1CFF1610EE66E340EE66E4C
:101EB00082D842E90001010EE76F1200D9CFE6FF98
:101EC000E1CFD9FF81E941E8090E016E015001011E
:101ED000D16FD26BD23532E2D1510008000ED2550B
:101EE0002DE2140EE66EE66A0150D16FD26BD10777
:101EF000000ED25B140ED203F3CFD2F1D103F3CF95
:101F0000D1F1F450D227000ED127010ED223D1C136
:101F1000E6FFD2C1E6FF0150140DF3CFD3F1F4CFA9
:101F2000D4F1000ED327010ED423D3C1E6FFD4C1D0
:101F3000E6FFB5EC1AF046E90106C8D7140EE66EC6
:101F4000E66A4C0EE66E340EE66EE66A000EE66E4B
:101F5000010EE66EE3EC1AF047E90101CC6BCD6BA4
:101F600042E9E7CFD9FF1200D9CFE6FFE1CFD9FF91
:101F700083E901500101D16FD26B140ED890D2BF0A
:101F800003D0D15D000ED25903E201500101CC6FA4
:101F900000500101D16FD26B0A0ED890D2BF03D08E
:101FA000D15D000ED25903E200500101CD6F41E92D
:101FB000E7CFD9FF1200D9CFE6FFE1CFD9FF83E900
:101FC00056E8036A046A00EBE6FF01EBE6FFE66A07
:101FD000D950050FE66EDACFE6FF9CEC1AF045E922
:101FE0000550046E04500101D16FD26BD151D21152
:101FF00048E00101CC510101D16FD26BD23506E22C
:10200000D1511308000ED25501E258DF0450E66E9C
:102010000101CD51140DF3CFD1F1F4CFD2F1000E67
:102020000101D127010ED2230101CC510101EA6A3D
:10203000D125E96ED251EA22E552E750EF6E010157
:10204000CC2B032A0101D950050FD16FDACFD2F181
:102050000350EA6AD125E96EDA50EA22EF50046EA5
:102060000450D16FD26BD151D21109E00A0EF36E38
:10207000F46AF3500418B6E1F450B4E11FDF046AC7
:10208000B1D757E9E7CFD9FF1200D9CFE6FFE1CFAB
:10209000D9FF81E942E8026A02500101D16FD26B97
:1020A0000A0ED890D2BF03D0D15D000ED25922E2E1
:1020B000016A0150D16FD26B140ED890D2BF03D0F9
:1020C000D15D000ED25914E20250140DF3CFD1F1BC
:1020D000F4CFD2F1000ED127010ED2230150EA6ACB
:1020E000D125E96ED251EA22200EEF6E012AE1D706
:1020F000022AD2D70101CC6BCD6B43E9E7CFD9FFE0
:102100001200D9CFE6FFE1CFD9FF83E944E8066AA0
:10211000056A80EB03F081EB04F0100E035C270EE0
:10212000045806E3052A100E035E270E045AF5D75D
:1021300005500101D16FD26BD23522E2D151000896
:10214000000ED2551DE2300E0524E66E0101CD5180
:10215000140DF3CFD1F1F4CFD2F1000E0101D1274C
:10216000010ED2230101CC51CC2B0101EA6AD12509
:10217000E96ED251EA22E552E750EF6E010E066E8B
:10218000056AE80E035C030E045806E3052AE80E10
:10219000035E030E045AF5D705500101D16FD26BCF
:1021A000D23522E2D1510008000ED2551DE2300E88
:1021B0000524E66E0101CD51140DF3CFD1F1F4CF1A
:1021C000D2F1000E0101D127010ED2230101CC5121
:1021D000CC2B0101EA6AD125E96ED251EA22E552FF
:1021E000E750EF6E010E066E056A640E035C000E8A
:1021F000045806E3052A640E035E000E045AF5D760
:1022000005500101D56FD66BD63504E2D5510008D3
:10221000000ED655D870D36BD46BD3370650D96F18
:10222000DA6BDA3504E2D9510008000EDA55D870BD
:10223000D76BD86BD737D351D711D16FD451D811B1
:10224000D26FD151D2111DE0300E0524E66E01018E
:10225000CD51140DF3CFD1F1F4CFD2F1000E010125
:10226000D127010ED2230101CC51CC2B0101EA6A06
:10227000D125E96ED251EA22E552E750EF6E010E08
:10228000066E056A0A0E035C000E045806E3052A72
:102290000A0E035E000E045AF5D705500101D56FF2
:1022A000D66BD63504E2D5510008000ED655D8704D
:1022B000D36BD46BD3370650D96FDA6BDA3504E2BF
:1022C000D9510008000EDA55D870D76BD86BD737C4
:1022D000D351D711D16FD451D811D26FD151D2115E
:1022E0001DE0300E0524E66E0101CD51140DF3CF33
:1022F000D1F1F4CFD2F1000E0101D127010ED2238A
:102300000101CC51CC2B0101EA6AD125E96ED251F1
:10231000EA22E552E750EF6E010E066E300E0324FE
:10232000E66E0101CD51140DF3CFD1F1F4CFD2F10E
:10233000000E0101D127010ED2230101CC51CC2B7B
:102340000101EA6AD125E96ED251EA22E552E7504D
:10235000EF6E45E9E7CFD9FF1200D9CFE6FFE1CF15
:10236000D9FF81E942E8000156510101D16FD26BDA
:10237000D151D21158E1026A0250D16FD26B040ED2
:10238000D890D2BF03D0D15D000ED2594AE2016A83
:102390000150D16FD26B140ED890D2BF03D0D15D53
:1023A000000ED2593CE20101CF510101D56FD66B2D
:1023B0000250F36EF46AF350D55DD36FF450D659E2
:1023C000D46F140ED403F3CFD4F1D303F3CFD3F1EE
:1023D000F450D427000ED327010ED423015001015D
:1023E000CE250101EA6AEA36D325E96ED451EA2204
:1023F000EF50E66E0250140DF3CFD1F1F4CFD2F1CD
:10240000000ED127000ED2230150EA6AD125E96ED1
:10241000D251EA22E552E750EF6E012AB9D7022ADB
:0E242000ABD781EC08F043E9E7CFD9FF1200FB
:02242E00D9CF04
:10243000E6FFE1CFD9FF81E97FE845E85EEC0FF0E8
:10244000760EE66E340EE66EDBEC0FF042E9ADEC94
:1024500011F0446A44500101D16FD26B400ED89004
:10246000D2BF03D0D15D000ED2590FE2D950010F77
:10247000D16FDACFD2F14450EA6AD125E96EDA5051
:10248000EA22AA0EEF6E442AE5D73F6A446A445016
:102490000101D16FD26B040ED890D2BF03D0D15DB1
:1024A000000ED25923E24450D16FD26BD151D211D8
:1024B00002E1010E01D0AA0E406E400EE66ED95028
:1024C000010FE66EDACFE6FF4450030DF3CFE9FFCC
:1024D000F4CFEAFF420EE9260F0EEA22EECFE6FF26
:1024E000EECFE6FFA1D845E9442AD1D7446A44504B
:1024F000D16FD26B400ED890D2BF03D0D15D000E09
:10250000D2590EE2D950010FD16FDACFD2F1445037
:10251000EA6AD125E96EDA50EA22EF6A442AE7D75F
:10252000100E016E026AB00E036EA80E046E3C0E11
:10253000E66ED950010FE66EDACFE6FF9BEC04F0B1
:1025400043E9F350416EF450426E010142EBD1F188
:10255000D26BD151436E43503E6EFF0E4114436E19
:1025600043503F6E010E406E400EE66ED950010F93
:10257000E66EDACFE6FF42CFE6FF43CFE6FF54D860
:1025800045E9010EE66EB4D941E97FE946E9E7CFB6
:10259000D9FF1200D9CFE6FFE1CFD9FF86E943E8A2
:1025A00081EB07F082EB08F0FF0E0314A96EA69EE4
:1025B000A69C066A06500101D16FD26B0050010142
:1025C000D890D2BF03D0D15D000ED25911E2A680BF
:1025D0000000A850E66E01EBE9FF02EBEAFF012ADA
:1025E000000E0222E552E750EF6EA92A062AE2D732
:1025F000010E00D044E9E7CFD9FF1200D9CFE6FFA2
:10260000E1CFD9FF83E941E8036AFF0E0014A96E08
:10261000A69EA69CA6800000A850036E035000D082
:1026200042E9E7CFD9FF1200D9CFE6FFE1CFD9FFCA
:1026300086E942E8076AFF0E0314A96EA69EA69CCF
:10264000A684066A06500101D16FD26B0050D89063
:10265000D2BF03D0D15D000ED2594CE201EBE9FFAD
:1026600002EBEAFF012A000E0222EF50A86EA198A9
:10267000F250800B01E0010ED16FD26BD151D2111B
:1026800002E0020E076EF250400B01E0010ED16F26
:10269000D26BD151D21101E0072AF29CF29E550E65
:1026A000A76EAA0EA76EA6820750D16FD26B020E3C
:1026B000D890D2BF03D0D15D000ED25903E3F28E81
:1026C000020E075E0750D16FD26BD23506E2D151B0
:1026D0000008000ED25501E2F28C076AA150100BDF
:1026E00001E0010ED16FD26BD151D211F7E0A92ACE
:1026F000062AA8D7010E43E9E7CFD9FF1200D9CFA8
:10270000E6FFE1CFD9FF81E941E86A0EE66E340EBB
:10271000E66EDBEC0FF042E9ADEC11F0016A01501E
:102720000101D16FD26B040ED890D2BF03D0D15D1E
:10273000000ED25901E37FD00150400DF3CFD1F10B
:10274000F4CFD2F10150030DF3CFE9FFF4CFEAFF4C
:10275000420EE9260F0EEA22D1C1EEFFD2C1EDFFF3
:102760000150030DF3CFE9FFF4CFEAFF420EE92653
:102770000F0EEA22EECFD1F1EFCFD2F13F0ED127EB
:10278000000ED223D1C1E6FFD2C1E6FF37DF42E916
:10279000E66E0150030DF3CFE9FFF4CFEAFF420EDE
:1027A000E9260F0EEA22020EE926000EEA22E55281
:1027B000E750EF6E0150030DF3CFE9FFF4CFEAFFCE
:1027C000420EE9260F0EEA22020EE926000EEA2248
:1027D000EF500101D56FD66BAA0ED51901E1D65184
:1027E00002E0000E01D0010ED36FD46B0150030D37
:1027F000F3CFE9FFF4CFEAFF420EE9260F0EEA22FB
:10280000020EE926000EEA22EF50D96FDA6BFF0EB6
:10281000D91901E1DA5102E0000E01D0010ED76FA3
:10282000D86BD351D711D16FD451D811D26FD151A8
:10283000D211012A74D742E9E7CFD9FF1200D9CFCC
:10284000E6FFE1CFD9FF82E955E8150EE66ED950D3
:10285000020FE66EDACFE6FF0050030DF3CFE9FF7B
:10286000F4CFEAFF420EE9260F0EEA22EECFE6FF92
:10287000EECFE6FF8FDE45E902500001656F666B23
:102880000350606F0450616F626B0650CF6FD06B66
:102890000750CD6FCE6B0850C96FCA6B0950CB6F14
:1028A000CC6B0A50EC6FED6B0B50F06FF16B0C5072
:1028B000EE6FEF6B0D50F46FF56B0E50F26FF36B24
:1028C0000F50F86FF96B1050F66FF76B1150000155
:1028D000FD6F1250FC6F1350FB6F1450FE6F1550BC
:1028E000FA6F1650FF6F010E56E9E7CFD9FF1200BD
:1028F000D9CFE6FFE1CFD9FF82E955E80001655164
:10290000026E6051036E6151046E056ACF51066E0E
:10291000CD51076EC951086ECB51096EEC510A6E4C
:10292000F0510B6EEE510C6EF4510D6EF2510E6EB5
:10293000F8510F6EF651106E0001FD51116EFC51F1
:10294000126EFB51136EFE51146EFA51156EFF514B
:10295000166E150EE66ED950020FE66EDACFE6FF60
:102960000050030DF3CFE9FFF4CFEAFF420EE92652
:102970000F0EEA22EECFE6FFEECFE6FF55DE45E989
:10298000150E026E020E036EE66ED950020FE66E51
:10299000DACFE6FF0050030DF3CFE9FFF4CFEAFFF3
:1029A000420EE9260F0EEA22EECFD1F1EFCFD2F19F
:1029B0003E0E0101D127000ED223D1C1E6FFD2C1C4
:0E29C000E6FF32DE45E956E9E7CFD9FF120007
:0229CE00DACF5E
:1029D000E4FFE2CFDAFFE9CFE4FFEACFE4FFFBC197
:1029E000E4FFFCC1E4FFFDC1E4FFFEC1E4FFF6CF5C
:1029F000E4FFF7CFE4FFF5CFE4FFF3CFE4FFF4CF3C
:102A0000E4FFFACFE4FF01EED1F02A0EE80403E37D
:102A1000EECFE4FFFBD7E652D9CFE6FFE1CFD9FFF7
:102A200081E941E8F250040B01E0010E0001586F0A
:102A3000596B5851591157E0F294016A0150000145
:102A4000586F596B020ED89059BF03D0585D000ED5
:102A5000595948E20150040DF3CFE9FFF4CFEAFFE2
:102A6000560EE9260F0EEA22EECF58F0EDCF59F0C0
:102A7000EE2A000EEF220150040DF3CFE9FFF4CF50
:102A8000EAFF560EE9260F0EEA22EECF5AF0EECFFD
:102A90005BF0EECF5CF0EFCF5DF058515C5D5951CB
:102AA0005D591EE2000167510001586F596B010E1C
:102AB00058190AE1595108E10150E66EE66AF10E33
:102AC000E66E52EC02F043E90150040DF3CFE9FF4A
:102AD000F4CFEAFF560EE9260F0EEA22EE6AED6AFF
:102AE000012AACD7F28A9E50010B586F596B58518E
:102AF000591157E09E90016A01500001586F596BBF
:102B0000020ED89059BF03D0585D000E595948E2C3
:102B10000150040DF3CFE9FFF4CFEAFF4E0EE92692
:102B20000F0EEA22EECF58F0EDCF59F0EE2A000E4C
:102B3000EF220150040DF3CFE9FFF4CFEAFF4E0E70
:102B4000E9260F0EEA22EECF5AF0EECF5BF0EECF81
:102B50005CF0EFCF5DF058515C5D59515D591EE25C
:102B6000000167510001586F596B010E58190AE1B5
:102B7000595108E10150E66EE66AF00EE66E52EC3D
:102B800002F043E90150040DF3CFE9FFF4CFEAFF6F
:102B90004E0EE9260F0EEA22EE6AED6A012AACD744
:102BA0009D80F250020B01E0010E586F596B585195
:102BB000591102E0F292F288F28E42E9E7CFD9FF92
:102BC000E55201EEFAF02A0EE80403E3E5CFEDFF4B
:102BD000FBD7E5CFFAFFE5CFF4FFE5CFF3FFE5CF75
:102BE000F5FFE5CFF7FFE5CFF6FFE5CFFEF1E5CF47
:102BF000FDF1E5CFFCF1E5CFFBF1E5CFEAFFE5CF55
:102C0000E9FFE5CFDAFF1100D8CFE4FFE0CFE4FF22
:102C1000E46EDACFE4FFE2CFDAFFE9CFE4FFEACFF8
:102C2000E4FFF3CFE4FFF4CFE4FFE652D9CFE6FFB1
:102C3000E1CFD9FF81E943E89E50400B01E0010E4E
:102C400000015E6F5F6B5E515F1113E09E9CC3508D
:102C5000016E026AE66A010EE66EC450E66EE66A2E
:102C600040EC0EF0FE0EE350012641E9E550022251
:102C70009D8CF28C44E9E7CFD9FFE552E5CFF4FF14
:102C8000E5CFF3FFE5CFEAFFE5CFE9FFE5CFDAFFD8
:102C9000E550E5CFE0FFE5CFD8FF1000D9CFE6FF44
:102CA000E1CFD9FF81E942E8016A026A0FEC00F046
:102CB00076EC00F04DEC01F086EC01F0FDEC02F05A
:102CC00000016051F36EF46A010EF31801E1F45053
:102CD00001E1D6D0FE0EF31801E1F45005E0000E3C
:102CE000E66EE66AE66830D0030E611901E16251D2
:102CF00001E1AFD0020E611901E1625148E0010E1D
:102D0000611901E162512EE0615101E1625120E05F
:102D1000060E615D000E625901E2AED0800EE66ED5
:102D2000960EE66E980EE66EE66A27EC05F044E92C
:102D3000010EE66EF9EC04F041E945EC10F0000EEE
:102D4000E66EE66A020EE66E52EC02F043E9B6D792
:102D5000C00EE66E340EE66EDBEC0FF042E93CECA2
:102D60000FF081D0800EE66E960EE66E980EE66E3F
:102D7000E66A27EC05F044E9B60EE66E340EE66E20
:102D8000DBEC0FF042E949EC19F0026E6CD0800EDA
:102D9000E66E960EE66E980EE66EE66A27EC05F095
:102DA00044E9016A01500101D16FD26B040ED89041
:102DB000D2BF03D0D15D000ED25955E20150030DB0
:102DC000F3CFE9FFF4CFEAFF420EE9260F0EEA2225
:102DD000020EE926000EEA22EF50F36EF46A020EAC
:102DE000F31801E1F4501AE0010EF31830E1F45049
:102DF0002EE1A90EE66E340EE66EDBEC0FF042E932
:102E00000150E66EE66A81EC10F042E9A60EE66E2D
:102E1000340EE66EDBEC0FF042E919D0990EE66E47
:102E2000340EE66EDBEC0FF042E90150E66EE66A26
:102E300081EC10F042E9A60EE66E340EE66EDBEC95
:102E40000FF042E90150E66E1FEC14F041E9012A4F
:102E5000A9D7800EE66E960EE66E980EE66EE66ACE
:102E600027EC05F044E9000EE66EE66A020EE66E17
:102E700052EC02F043E90001612B000E62231ED7E1
:062E800047EC18F01BD71F
:0A2E86000001FA2BFA510101D16F8F
:102E9000D26B3C0ED11901E0F9D0D25101E0F6D04D
:102EA0000001FB2BFA6BFB510101D16FD26B3C0E81
:102EB000D11901E0EBD0D25101E0E8D00001FC2BA8
:102EC000FB6BFC510101D16FD26B180ED11901E0DF
:102ED000DDD0D25101E0DAD00001FD2BFC6BFD51B9
:102EE0000101DB6FDC6B1D0EDB190CE1DC510AE12B
:102EF0000001FE510101DD6FDE6B020EDD1901E103
:102F0000DE5102E0000E01D0010ED96FDA6BD9510B
:102F1000DA1112E0040EE66EE66A0001FF51E66E79
:102F2000E66A07EC0EF0E552E5CFE0F1E7CFDFF11E
:102F30000101DF51E01102E1000E01D0010ED76F57
:102F4000D86BD751D8111EE10001FD510101E36F8B
:102F5000E46B1E0EE3190CE1E4510AE10001FE519D
:102F60000101E56FE66B020EE51901E1E65102E0B1
:102F7000000E01D0010EE16FE26BE151E21102E1BE
:102F8000000E01D0010ED56FD66BD551D61154E18C
:102F90000001FD510101E96FEA6B1F0EE91942E1E1
:102FA000EA5140E10001FE510101F16FF26B040EA4
:102FB000F11901E1F2510CE00001FE510101F36F42
:102FC000F46B060EF31901E1F45102E0000E01D09A
:102FD000010EEF6FF06BEF51F0110CE10001FE51AB
:102FE0000101F56FF66B090EF51901E1F65102E0EA
:102FF000000E01D0010EED6FEE6BED51EE110CE104
:103000000001FE510101F76FF86B0B0EF71901E19A
:10301000F85102E0000E01D0010EEB6FEC6BEB51AA
:10302000EC1102E1000E01D0010EE76FE86BE751F1
:10303000E81102E1000E01D0010ED36FD46BD35121
:10304000D4110CE10001FD510101F96FFA6B200E62
:10305000F91901E1FA5102E0000E01D0010ED16F21
:10306000D26BD151D21104E00001FE2B010EFD6F95
:103070000001FE510101D16FD26B0D0ED11906E195
:0E308000D25104E10001FF2B010EFE6F120081
:02308E00D9CF98
:10309000E6FFE1CFD9FF81E942E80101CD51016EA0
:1030A000CC51026EE66AE66AB4EC0FF042E9260EF5
:1030B000E66E350EE66EDBEC0FF042E90001FC51E6
:1030C000E66EE66A81EC10F042E9230EE66E350EFC
:1030D000E66EDBEC0FF042E90001FB51E66EE66ABA
:1030E00081EC10F042E9230EE66E350EE66EDBEC65
:1030F0000FF042E90001FA51E66EE66A81EC10F049
:1031000042E91E0EE66E350EE66EDBEC0FF042E98C
:10311000E66A0E0EE66EB4EC0FF042E9E80EE66EDB
:10312000030EE66EE66AE66AD1C0E6FFD2C0E6FFAD
:10313000D3C0E6FFD4C0E6FF55EC0DF0E552E5CF75
:10314000D4F1E5CFD3F1E5CFD2F1E7CFD1F1D1C1C1
:10315000E6FFD2C1E6FF81EC10F042E9190EE66EFF
:10316000350EE66EDBEC0FF042E90150E66E0250E0
:10317000E66EB4EC0FF042E943E9E7CFD9FF120065
:1031800012000D0EE66E350EE66EDBEC0FF042E936
:103190000A0EE66EE66AC9C0E6FFCAC0E6FF19EC91
:1031A0000DF081EC10F042E91200010EE66E350ED2
:1031B000E66EDBEC0FF042E90A0EE66EE66ACBC083
:1031C000E6FFCCC0E6FF19EC0DF081EC10F042E90F
:1031D0001200F50EE66E340EE66EDBEC0FF042E9FF
:1031E0000A0EE66EE66ACDC0E6FFCEC0E6FF19EC39
:1031F0000DF081EC10F042E91200020E000161199D
:1032000001E1625109E0010E611901E1625104E03E
:10321000615106E1625104E1612B000E622312004C
:10322000EF0EE66EF9EC04F041E912001200D9CF7E
:10323000E6FFE1CFD9FF81E942E800016151621167
:1032400043E9E7CFD9FF120045EC10F0E90EE66E36
:10325000340EE66EDBEC0FF042E9ADEC11F030EC31
:1032600007F0010EE66EF9EC04F041E9120045ECBE
:1032700010F0DD0EE66E340EE66EDBEC0FF042E988
:1032800065C0E6FF66C0E6FF81EC10F042E9ADEFF5
:0232900011F03B
:0E329200D9CFE6FFE1CFD9FF81E949E80F016E
:1032A000406B016A01500101D16FD26B040ED890BE
:1032B000D2BF03D0D15D000ED2595EE20150400D65
:1032C000F3CFD1F1F4CFD2F1FF0ED117000ED21708
:1032D0000150030DF3CFE9FFF4CFEAFF420EE926D8
:1032E0000F0EEA22D1C1EEFFD2C1EDFF0150030D56
:1032F000F3CFE9FFF4CFEAFF420EE9260F0EEA22F0
:10330000EECFD1F1EFCFD2F13F0ED127000ED22375
:10331000D1C1E6FFD2C1E6FFFEEC12F042E9E66E53
:103320000150030DF3CFE9FFF4CFEAFF420EE92687
:103330000F0EEA22020EE926000EEA22E552E750BD
:10334000EF6E0150030DF3CFE9FFF4CFEAFF420E19
:10335000E9260F0EEA22020EE926000EEA22EF50BD
:103360000101D16FD26BAA0ED11901E1D25102E055
:103370000F01402B012A96D70F0144510101D16F53
:10338000D26B010ED11901E1D25102E0FF0E5AD0E9
:10339000400EE66E000EE66E0F0EE66E42CFE6FFC2
:1033A00043CFE6FFCAEC12F045E93C0EE66E000E94
:1033B000E66E0F0EE66E9BEC04F043E9F350026EEE
:1033C000F450036E046A056A0F013D5101013DCFBF
:1033D000D2F1D16BD1510412D25105120F013E51DD
:1033E0000412000E05120450021803E105500318E0
:1033F00002E0FE0E27D00051416F5EEC0FF08F0E01
:10340000E66E340EE66EDBEC0FF042E90F01405140
:10341000E66EE66A81EC10F042E98C0EE66E340E40
:10342000E66EDBEC0FF042E90F014151E66EE66A11
:1034300081EC10F042E9850EE66E340EE66EDBECB0
:0C3440000FF042E94AE9E7CFD9FF120083
:04344C0020202020FC
:10345000202020202020202020202020202020206C
:10346000004C4344756E690A00004C4553452045A5
:1034700050524F4D0A00466F726D6174696E67203D
:103480002E2E2E000020557365640A002F00004583
:103490004550524F4D3A200000446576656C4F53BD
:1034A0002061742000000A0000466C617368465376
:1034B000206174200000466C61736846530A000066
:1034C000446973706C61793A200000446576656CDC
:1034D0004F532D31362076302E310A00004552529E
:1034E0004F5220202020200A0020205245414459DC
:1034F0002020200A002B31322C3020202020200ACE
:10350000002B20352C3020202020200A002B2033B7
:103510002C3320202020200A004D487A0000202053
:103520002000003A000055703A2000000A000045D3
:0735300072726F72200000AF
:08353800FB0EE3CFF6FFFC0ED1
:10354000E3CFF7FFFD0EE3CFF8FFFE0EE3CFE9FF79
:10355000FF0EE3CFEAFFE9CFF3FFEACFF4FF090064
:10356000F5CFEFFFEE66FBD71200D9CFE6FFDACF3B
:10357000E6FFFA0EE3CFD9FFFB0EE3CFDAFFFC0E36
:10358000E3CFE9FFFD0EE3CFEAFFE9CFF3FFEACF98
:10359000F4FFF80EE35003E1F90EE3500BE0F80EF0
:1035A000E30602E2F90EE306DECFEFFFEE66F1D7A7
:1035B000DD52EFD7FF0EE3CFDAFFE552FF0EE3CF88
:1035C000D9FFE5521200FB0EE3CFF6FFFC0EE3CF6E
:1035D000F7FFFD0EE3CFF8FFFE0EE3CFE9FFFF0E8E
:1035E000E3CFEAFFE9CFF3FFEACFF4FFF90EE350B0
:1035F00003E1FA0EE3500CE0F90EE30602E2FA0EE4
:10360000E3060900F5CFEFFFEE66F0D70A00EED72C
:023610001200A6
:0E361200060EF66E000EF76E000EF86E020148
:103620000900F5501C6F0900F5501D6F03E11C6780
:1036300001D03DD00900F550176F0900F550186F03
:103640000900F550196F09000900F550E96E0900ED
:10365000F550EA6E090009000900F5501A6F0900DB
:10366000F5501B6F09000900F6CF1EF2F7CF1FF2CD
:10367000F8CF20F217C2F6FF18C2F7FF19C2F8FF01
:1036800002011A5302E11B5307E00900F550EE6EE8
:103690001A07F8E21B07F9D71EC2F6FF1FC2F7FF91
:1036A00020C2F8FF02011C07000E1D5BBFD71200ED
:1036B000FF0EE3500F015E6FEE0E02D0F20E00001F
:1036C000E76EE72E61EF1BF00C0E0101FF6FE76A5A
:1036D000E72E68EF1BF0FF2F67EF1BF00F015E2F47
:0636E0005EEF1BF012007A
:0A36E600F36AF46AFF0EE124E96EB6
:1036F000FF0EE220EA6EED6607D01F0EEF6404D0E5
:0A3700007F0EEF6001D0F32A1200E3
:06370A00600EF36E00EEFC
:1037100000F00F0E01D81200EA6002D0EE6AFCD76A
:0A372000F350E9601200EE6AFCD7D6
:06372A001EEE00F02EEE81
:1037300000F0F86A09EC1BF007EC00F04EEC16F014
:04374000FBD71200A1
:0B37440001020408102040800204086D
:020000040030CA
:0100010008F6
:0100020019E4
:010003001EDE
:010005008179
:01000600C039
:00000001FF
