:020000040000FA
:0600000028EF1FF01200C2
:020006000000F8
:0600080042EF16F01200A9
:02000E001200DE
:060018005FEF17F012007B
:02001E00D9CF38
:10002000E6FFE1CFD9FF82E900016051F36EF46A87
:10003000E10EF31801E1F45008E0E30EF3180BE1D0
:10004000F45009E13C0E616F07D0140E616F626BD2
:10005000EF0E006E04D0616B626B636B646B60517A
:10006000656F666B0050606F6051F36EF46AA8ECC8
:1000700011F041E9E7CFD9FF1200D9CFE6FFE1CF78
:10008000D9FF85E948E8D5C0E6FFD6C0E6FFD7C06E
:10009000E6FFD8C0E6FF020EE66EE66AE66AE66AAA
:1000A0007FEC0FF0E552E5CF9EF1E5CF9DF1E5CF76
:1000B0009CF1E7CF9BF101019B51096E9C510A6EA7
:1000C0009D510B6E9E510C6E80EB05F081EB06F09E
:1000D00082EB07F083EB08F00550095C06500A58E4
:1000E00007500B5808500C580EE2D950050FE96E16
:1000F000DACFEAFF0950EE5E0A50EE5A0B50EE5A84
:100100000C50EE5AE9D749E9E7CFD9FF1200D9CF11
:10011000E6FFE1CFD9FF81E950E80101D551056E35
:10012000D651066ED751076ED851086ED351096E5D
:10013000D4510A6E0B6A0C6A09EBE6FF0AEBE6FF84
:100140000BEBE6FF0CEBE6FF05EBE6FF06EBE6FF4D
:1001500007EBE6FF08EBE6FF60EC0EF0E552E5CFBB
:100160009EF1E5CF9DF1E5CF9CF1E7CF9BF1010139
:100170009B510D6E9C510E6E9D510F6E9E51106ED7
:100180000101C551056EC651066E076A086AC7515E
:10019000096EC8510A6E0B6A0C6AE66A040EE66EB6
:1001A000E66AE66A0DEBE6FF0EEBE6FF0FEBE6FF15
:1001B00010EBE6FF7FEC0FF0E552E5CF9EF1E5CFC7
:1001C0009DF1E5CF9CF1E7CF9BF101019B51016EC1
:1001D0009C51026E9D51036E9E51046EE80EE66EB8
:1001E000030EE66EE66AE66A01EBE6FF02EBE6FF67
:1001F00003EBE6FF04EBE6FF60EC0EF0E552E5CF23
:100200009EF1E5CF9DF1E5CF9CF1E7CF9BF19BC13E
:10021000C9F09CC1CAF005EBE6FF06EBE6FF07EB71
:10022000E6FF08EBE6FF3BEC0DF00DEBE6FF0EEB17
:10023000E6FF0FEBE6FF10EBE6FF3BEC0DF0D70E11
:10024000E66EA30EE66EE66A400EE66ED0EC0FF0A8
:10025000D0EC0FF0C9EC0DF0E552E5CF9EF1E5CF03
:100260009DF1E5CF9CF1E7CF9BF101019B51016E20
:100270009C51026E9D51036E9E51046EE80EE66E17
:10028000030EE66EE66AE66A01EBE6FF02EBE6FFC6
:1002900003EBE6FF04EBE6FF60EC0EF0E552E5CF82
:1002A0009EF1E5CF9DF1E5CF9CF1E7CF9BF19BC19E
:1002B000CBF09CC1CCF009EBE6FF0AEBE6FF0BEBC1
:1002C000E6FF0CEBE6FF3BEC0DF00DEBE6FF0EEB73
:1002D000E6FF0FEBE6FF10EBE6FF3BEC0DF0E10E67
:1002E000E66E7A0EE66EBC0EE66E400EE66ED0EC62
:1002F0000FF0D0EC0FF0C9EC0DF0E552E5CF9EF118
:10030000E5CF9DF1E5CF9CF1E7CF9BF101019B513A
:10031000016E9C51026E9D51036E9E51046EE80E5B
:10032000E66E030EE66EE66AE66A01EBE6FF02EBB6
:10033000E6FF03EBE6FF04EBE6FF60EC0EF0E552B0
:10034000E5CF9EF1E5CF9DF1E5CF9CF1E7CF9BF1A5
:100350009BC1CDF09CC1CEF0016A026A036A046AB7
:1003600051E9E7CFD9FF1200D9CFE6FFE1CFD9FF9E
:1003700081E944E8016A026A036A046AD350700B97
:10038000E842E842E842E842F36EF46A070EF318E6
:1003900001E1F4503CE0060EF31801E1F45033E0C3
:1003A000050EF31801E1F4502AE0040EF31801E100
:1003B000F45021E0030EF31801E1F45018E0020EAE
:1003C000F31801E1F4500FE0010EF31801E1F450CD
:1003D00006E0F35022E1F45020E11F0E01D0FA0EA6
:1003E000016E026A18D0F40E016E010E13D0E80EF1
:1003F000016E030E0FD0D00E016E070E0BD0A00EB3
:10040000016E0F0E07D0400E016E1F0E03D0800E3E
:10041000016E3E0E026E036A046A9B50400B01E0BF
:10042000010E01019B6F9C6B010E9B1923E19C51F6
:1004300021E1040EE66EE66AE66AE66A01EBE6FF93
:1004400002EBE6FF03EBE6FF04EBE6FF7FEC0FF0C9
:10045000E552E5CF9EF1E5CF9DF1E5CF9CF1E7CFE9
:100460009BF101019B51016E9C51026E9D51036EE7
:100470009E51046E01EBF6F102EBF7F103EBF8F19C
:1004800004EBF9F145E9E7CFD9FF1200FA0EE66E69
:10049000EBEC1EF041E9FA0EE66EEBEC1EF041E9E2
:1004A000FA0EE66EEBEC1EF041E9FA0EE66EEBECAE
:1004B0001EF041E9FA0EE66EEBEC1EF041E9FA0E91
:1004C000E66EEBEC1EF041E912000001EB51010178
:1004D0009B6F9C6BAA0E9B1901E19C5102E007D90E
:1004E00004D00001EC2B000EED23FC50800B01E04A
:1004F000010E01019B6F9C6B9B519C1105E000015B
:10050000F82B000EF9230DD0FC50400B01E0010E3A
:100510009B6F9C6B9B519C1104E00001F62B000E1D
:10052000F723D050100B01E0010E01019B6F9C6B73
:100530009B519C1105E0D0980001F42B000EF5238F
:10054000D050020B01E0010E01019B6F9C6B9B518F
:100550009C1105E0D0920001EE2B000EEF23D0504D
:10056000010B01019B6F9C6B9B519C1105E0D0908E
:100570000001F02B000EF123D050080B01E0010E1A
:1005800001019B6F9C6B9B519C1105E0D096000173
:10059000F22B000EF3231200D9CFE6FFE1CFD9FFF3
:1005A00084E90001C85101019B6F9C6B200ED8901B
:1005B0009CBF03D09B5D000E9C5902E3000E21D02E
:1005C0000250E66E0001C851030DF3CFE9FFF4CFEE
:1005D000EAFF680EE926000EEA22E552E750EF6EC8
:1005E000C851030DF3CFE9FFF4CFEAFF680EE92607
:1005F000000EEA22EE5200EBEEFF01EBEDFFC82BFE
:10060000010E41E9E7CFD9FF1200D9CFE6FFE1CFD4
:10061000D9FF81E941E8016A015001019B6F9C6BA0
:100620001F0ED8909CBF03D09B5D000E9C594AE2E0
:10063000010E0124E96EEA6AEA36030EEA02F3CFFC
:10064000EAFFE902F3CFE9FFF450EA26680EE92653
:10065000000EEA22EF50E66E0150030DF3CFE9FFE2
:10066000F4CFEAFF680EE926000EEA22E552E750D1
:10067000EF6E010E0124E96EEA6AEA36030EEA0221
:10068000F3CFEAFFE902F3CFE9FFF450EA26680E60
:10069000E926000EEA22EECF9BF1EECF9CF1EFCFE0
:1006A0009DF10150030DF3CFE9FFF4CFEAFF680E8F
:1006B000E926000EEA22EE529CC1EEFF9DC1EDFF3D
:1006C000012AAAD70001C56BC66BC76BC8510101CF
:1006D0009B6F9C6B9C3507E29B510008000E9C555C
:1006E00002E20001C80742E9E7CFD9FF1200D9CFE3
:1006F000E6FFE1CFD9FF81E941E80001676BFE0E1B
:10070000656F666B606F616B626B2EDEF6C1D1F058
:10071000F7C1D2F0F8C1D3F0F9C1D4F0040EE66EFF
:10072000E66AE66AE66AF6C1E6FFF7C1E6FFF8C1E7
:10073000E6FFF9C1E6FF400EE66E420EE66E0F0ED2
:10074000E66EE66A60EC0EF07FEC0FF0E552E5CF66
:10075000D8F0E5CFD7F0E5CFD6F0E7CFD5F0016AF6
:10076000015001019B6F9C6B200ED8909CBF03D061
:100770009B5D000E9C591AE20150030DF3CFE9FF77
:10078000F4CFEAFF680EE926000EEA22EE52EE6A86
:10079000ED6A0150030DF3CFE9FFF4CFEAFF680ED5
:1007A000E926000EEA22EF6A012ADAD70001C86BB7
:1007B000CF6BD06BCD6BCE6BC96BCA6BCB6BCC6B7D
:1007C000AA0EEB6FEC6BED6BF06BF16BEE6BEF6BFE
:1007D000F46BF56BF26BF36BF86BF96BF66BF76B15
:1007E000EA6BE96BDD6BDE6BDF6BE06BE16BE26BA1
:1007F000070EE86FE76BE66B020ED96FE66A080E2C
:10080000E66EE66AE66A100EE66EE66AE66AE66A92
:10081000D1C0E6FFD2C0E6FFD3C0E6FFD4C0E6FFFA
:10082000E80EE66E030EE66EE66AE66A7FEC0FF00F
:1008300060EC0EF060EC0EF0E552E5CF9EF1E5CFF6
:100840009DF1E5CF9CF1E7CF9BF19BC1E6F19CC107
:10085000E7F10001D951E66EE66AE6C1E6FFE7C1BD
:10086000E6FF24EC0EF0E552E5CFEBF1E7CFEAF13D
:100870000001010E676FD58ECD8042E9E7CFD9FF29
:100880001200D9CFE6FFE1CFD9FF81E941E80001AD
:10089000DD2B000EDE23DF23E0236851F36EF46AC4
:1008A000E868F31801E1F45001E1E2D0020EF31818
:1008B00001E1F45001E1CED0130EF31801E1F45040
:1008C00001E1E2D0120EF31801E1F45001E1DCD0B5
:1008D000F10EF31801E1F45001E19AD0F00EF31893
:1008E00001E1F45001E1D0D0100EF31801E1F45011
:1008F00040E0010EF31801E1F4500AE0F35001E08A
:10090000C3D0F45001E0C0D0E32B000EE423BCD0F0
:10091000CCEC1AF00001E951EA6FDDC0E1F0DEC075
:10092000E2F0E66AE66AC80EE66E420EE66EDDC0EA
:10093000E6FFDEC0E6FFDFC0E6FFE0C0E6FF3BEC1F
:100940000DF0E3C0E6FFE4C0E6FFBDEC0CF0A6EC62
:100950000EF0D0EC0FF062EC0DF041E9E750000131
:10096000E56FE96BDD6BDE6BDF6BE06BE36BE46B1C
:100970008BD06951016E130EF36EF46AF3500118B7
:1009800005E1F45003E1B0EC10F07ED0270EF36ED9
:10099000F46AF350011805E1F45003E1A8EC11F0FA
:1009A00073D00150E66EE66A06EC1FF042E9F3CF21
:1009B0009BF1F4CF9CF10101F350F41065E00001CC
:1009C000585101019B6F9C6B9C3507E29B511308AA
:1009D000000E9C5502E2B0EC10F00150E66E0001F2
:1009E0005951150DF3CF9BF1F4CF9CF1000E01018D
:1009F0009B27000E9C2300015851582B0101EA6AE5
:100A00009B25E96E9C51EA22E552E750EF6E3CD0FF
:100A1000030E691901E16A5138E0020E691901E11A
:100A20006A5133E0010E691901E16A510AE0695126
:100A30002BE16A5129E1E9DD000EE66EE66A010E5E
:100A400005D0E3DD000EE66EE66A020EE66EA4DD7A
:100A500043E91BD0E75101019B6F9C6B010E9B1971
:100A600013E19C5111E10001E92B10EC13F00CD0C3
:100A70000001685101019B6F9C6BFF0E9B1905E102
:100A80009C5103E1C2DDF4D7C0DD42E9E7CFD9FFD5
:100A900012000101D96BD9510F0BF36EF346F346E7
:100AA000C30EC214F310C26EC2821200D9CFE6FF89
:100AB000E1CFD9FF81E942E8016A026A070ED890C6
:100AC00002BE03D0015C000E025811E201EBE9FF07
:100AD00002EBEAFFD890E936EA36C50EE926010EA8
:100AE000EA22EE6AED6A012A000E0222E7D701012E
:100AF000D36BD46B0F0ED96F380ED56F5B0ED66FDC
:100B0000120ED76FD86B016A026A020ED89002BE2D
:100B100003D0015C000E025827E201EBE9FF02EB73
:100B2000EAFFD890E936EA36D890E936EA36DC0EA4
:100B3000E926010EEA22EE6AED6A01EBE9FF02EB1B
:100B4000EAFFD890E936EA36D890E936EA36DC0E84
:100B5000E926010EEA22020EE926000EEA22EE68DC
:100B6000ED68012A0222D1D7016A026A020ED890EA
:100B700002BE03D0015C000E025827E201EBE9FF40
:100B800002EBEAFFD890E936EA36D890E936EA3641
:100B9000E40EE926010EEA22EE6AED6A01EBE9FFB6
:100BA00002EBEAFFD890E936EA36D890E936EA3621
:100BB000E40EE926010EEA22020EE926000EEA22E0
:100BC000EE68ED68012A0222D1D70001FD6BFC6BB3
:100BD000FB6BFE6BFA6BFF6B43E9E7CFD9FF1200AB
:100BE0008F0ED3147009D36ED3829B8C9B8E789614
:100BF000C30EC2143C09C26EC198C19AC08EC70E02
:100C0000C0143809C06EF80EC0140609C06EC28048
:100C1000D58CD59AF80ED5140209D56ED596D59EE9
:100C2000CF0ECD140009CD6ECD8ECD96CD9CCD844A
:100C3000CD92CD909C0EC86EC78EC79CC68AF00E12
:100C4000C6140809C66E82868288D08EF1849F8081
:100C50009E929F9C9F96F294F28A9E909D809E9C6D
:100C60009D8C9E969D86F28EF28C1200D9CFE6FF67
:100C7000E1CFD9FF87E94CE8010E0B6E0C6A0D6AD3
:100C80000E6A0F6A106A116A126A01019B6F9C6BEF
:100C90009D6B9E6B00049F6F000E01589F511F0BB0
:100CA00008E00101D8909B379C379D379E37E806B6
:100CB000F9E101019B51076E9C51086E9D51096E2F
:100CC0009E510A6E0750081009100A1042E007EB07
:100CD0009BF108EB9CF109EB9DF10AEB9EF1D950D9
:100CE000020FE96EDACFEAFFEE509B17EE509C1729
:100CF000EE509D17EE509E179B519C119D119E1119
:100D00000DE0D9500F0FE96EDACFEAFF0B50EE126B
:100D10000C50EE120D50EE120E50EE12D9500B0F79
:100D2000E96EDACFEAFFD890EF36010EEB36020E0D
:100D3000EB36030EEB36D950070FE96EDACFEAFF38
:100D4000D890030EEB32020EEB32010EEB32EF3293
:100D5000B9D70FEBF6F110EBF7F111EBF8F112EB5D
:100D6000F9F14DE9E7CFD9FF1200D9CFE6FFE1CF86
:100D7000D9FF87E96AE8200E076E086AB70E096E88
:100D80001D0E0A6EC10E0B6E040E0C6E0D680E6801
:100D90000F681068010E116E126A136E146A2D68C6
:100DA0002E682F68306801019F6FA06BA16BA26B4A
:100DB0000704A36F000E0858A46FA3511F0B08E08F
:100DC0000101D8909F37A037A137A237E806F9E193
:100DD0009FC19BF1A0C19CF1A1C19DF1A2C19EF157
:100DE00001019B07000E9C5B9D5B9E5B010E1F0B30
:100DF00008E00101D8909B379C379D379E37E80665
:100E0000F9E10101010EA56FA66BA76BA86BA551B7
:100E10009B13A6519C13A7519D13A8519E139B5140
:100E2000196E9C511A6E9D511B6E9E511C6E010EC7
:100E30009B6F9C6B9D6B9E6B07049F6F000E085809
:100E4000A06F9F511F0B08E00101D8909B379C3782
:100E50009D379E37E806F9E101019B51156E9C51C3
:100E6000166E9D51176E9E51186E1D6A1E6A1F6A7E
:100E7000206A00501D5C01501E5802501F5803503C
:100E8000205801E3BFD004EBE9FF05EBEAFF042A99
:100E9000000E0522EF509B6F9C6B9D6B9E6B9CAF71
:100EA00002D09D699E699B51256E9C51266E9D5175
:100EB000276E9E51286E115012101EE0080EE66E2D
:100EC000E66A25EBE6FF26EBE6FF27EBE6FF28EBDD
:100ED000E6FFCCDE46E9F6C19BF1F7C19CF1F8C113
:100EE0009DF1F9C19EF101019B51256E9C51266E29
:100EF0009D51276E9E51286E800E216E226A236AB4
:100F0000246A215022102310241071E015EB9BF16C
:100F100016EB9CF117EB9DF118EB9EF1D9502D0FBC
:100F2000E96EDACFEAFFEE509B17EE509C17EE50B9
:100F30009D17EE509E179B51296E9C512A6E9D5114
:100F40002B6E9E512C6ED9502D0FE96EDACFEAFF31
:100F5000D890EF36010EEB36020EEB36030EEB3671
:100F600021EB9BF122EB9CF123EB9DF124EB9EF115
:100F7000D950250FE96EDACFEAFFEE509B17EE50FD
:100F80009C17EE509D17EE509E179B519C119D1182
:100F90009E110DE0D950290FE96EDACFEAFF155006
:100FA000EE1A1650EE1A1750EE1A1850EE1A295073
:100FB0002A102B102C100DE0D9502D0FE96EDACF2E
:100FC000EAFF0950EE1A0A50EE1A0B50EE1A0C50B6
:100FD000EE1AD950210FE96EDACFEAFFD890030E4E
:100FE000EB32020EEB32010EEB32EF328AD7D950E0
:100FF0001D0FE96EDACFEAFFEE2A000EEE22EE2296
:10100000EE2237D7135014101FE007EBE6FF08EB72
:10101000E6FF2DEBE6FF2EEBE6FF2FEBE6FF30EBD6
:10102000E6FF24DE46E9F6C19BF1F7C19CF1F8C169
:101030009DF1F9C19EF101019B512D6E9C512E6EC7
:101040009D512F6E9E51306ED9502D0FE96EDACF23
:10105000EAFF0D50EE1A0E50EE1A0F50EE1A105015
:10106000EE1AD9502D0FE96EDACFEAFF1950EE16BD
:101070001A50EE161B50EE161C50EE162DEBF6F124
:101080002EEBF7F12FEBF8F130EBF9F16BE9E7CF4D
:10109000D9FF1200D9CFE6FFE1CFD9FF84E944E8B8
:1010A00006680768056A055001019B6F9C6B00503C
:1010B0009D6F9E6B9C359C519E1904E69B519D5DD6
:1010C0009C519E593DE305500124E96E000E02201B
:1010D000EA6EEF500618046E04509D6F9E6B040E6E
:1010E0009DC19BF19EC19CF1000A06E00101D890D0
:1010F0009B379C37E804FBE101019B51041A045023
:10110000080D04509F6FA06B040EA16FA1519FC1E9
:101110009DF1A0C19EF106E00101D8909E339D3360
:10112000E804FBE1075001019D199B6FF350A36B8D
:101130009B51F318066EF4500418076E052AB3D7B6
:1011400006EBF3FF07EBF4FF45E9E7CFD9FF120009
:10115000D9CFE6FFE1CFD9FF81E943E8016A015029
:1011600001019B6F9C6B140ED8909CBF03D09B5DBC
:10117000000E9C591EE20150EA6A000FE96E0F0E44
:10118000EA22EF6A0150EA6A140FE96E0F0EEA22B2
:10119000EF6A0150EA6A280FE96E0F0EEA22EF6A41
:1011A0000150EA6A3C0FE96E0F0EEA22EF6A012A4B
:1011B000D6D70F01566B040E556F140E546F010EE7
:1011C000576F506B400E516F140E526F540E536F89
:1011D00083888390839283948396839E839C839A4F
:1011E000959E959C959A959695949592959095989F
:1011F000030E026EE66A5A0EE66E620EE66E020E8E
:10120000E66E3DEC00F044E90250E66ED1DA41E9C9
:10121000A00EE66E8F0EE66E3E0EE66EE66A3DECC2
:1012200000F044E90250E66EC3DA41E9A00EE66E32
:10123000860EE66E010EE66EE66A3DEC00F044E9CD
:101240000250E66EB5DA41E9020E026E0250E66E19
:10125000AFDA41E919D90009FDE16F0EF66E3E0ED5
:10126000F76E0800F5CF9BF1740EF66E3E0EF76E2A
:101270000800F55001019B11E66E56D941E904D9E9
:101280000009FDE16D0EF66E3E0EF76E0800F5CF1B
:101290009BF1730EF66E3E0EF76E0800F5500101DD
:1012A0009B11E66E41D941E9EFD80009FDE16A0ED4
:1012B000F66E3E0EF76E0800F550E66E35D941E940
:1012C000E3D80009FDE16C0EF66E3E0EF76E0800E5
:1012D000F5CF9BF1720EF66E3E0EF76E0800F550DC
:1012E00001019B11E66E20D941E9CED80009FDE14C
:1012F000E66A210EE66E63D942E9C6D80009FDE12F
:10130000200EE66E030EE66EE66AE66A3DEC00F03D
:1013100044E9E66AE1DA41E9036E210EF36EF46A0C
:10132000F350031801E1F45002E0010E01D0000E69
:1013300044E9E7CFD9FF1200D9CFE6FFE1CFD9FFCB
:1013400081E945E8026A025001019B6F9C6B0F0125
:1013500055510101D8909CBF03D09B5D000E9C5954
:1013600001E38ED0710EF66E3E0EF76E0800F5CFDB
:101370009BF10250EA6A500FE96E0F0EEA22EF501D
:101380009B11056E81D80009FDE10550E66ECCD8B1
:1013900041E9016A015001019B6F9C6B0F0154519F
:1013A0000101D8909CBF03D09B5D000E9C5966E262
:1013B0006BD80009FDE1838E839C9590959295945E
:1013C0009596640EE66EE66AE66AE66A3DEC00F023
:1013D00044E90250140DF3CF9FF1F4CFA0F1000EB9
:1013E00001019F270F0EA0230150EA6A9F25E96E95
:1013F000A051EA22EF509D6F9E6B040EA16FA15188
:101400009DC19BF19EC19CF106E00101D8909C33E7
:101410009B33E804FBE101019B51036E0250140D64
:10142000F3CF9CF1F4CF9DF1000E9C270F0E9D236E
:101430000150EA6A9C25E96E9D51EA22EFCF9BF1AB
:101440000F0E9B15046E0350E66EB2D941E9900E63
:10145000E66E010EE66EE66AE66A3DEC00F044E9EF
:101460000450E66EA5D941E90A0EE66EE66AE66A20
:10147000E66A3DEC00F044E9012A8CD7022A63D7E2
:1014800046E9E7CFD9FF1200D9CFE6FFE1CFD9FF78
:1014900081E944E8016A026A036A046A95869584D0
:1014A00095829580838C839EB9D9026E900EE66EEC
:1014B000010EE66EE66AE66A3DEC00F044E9AED95C
:1014C000036E025001019D6F9E6B040E9DC19BF146
:1014D0009EC19CF1000A06E00101D8909B379C3721
:1014E000E804FBE1035001019F6FA06B9B519F112A
:1014F000016E800E0114046E800EF36EF46AF350D8
:1015000004180DE1F4500BE1900EE66E010EE66E4C
:10151000E66AE66A3DEC00F044E9010E01D0000EF7
:1015200045E9E7CFD9FF1200D9CFE6FFE1CFD9FFD8
:1015300082E943E80050026E025001019D6F9E6BEC
:10154000040E9F6F9F519DC19BF19EC19CF106E0CF
:101550000101D8909C339B33E804FBE101019B51CE
:10156000036E0F0E0214046E9590959295949596C5
:10157000839E839C640EE66EE66AE66AE66A3DEC4C
:1015800000F044E90350E66E13D941E9900EE66E8F
:10159000010EE66EE66AE66A3DEC00F044E90450AE
:1015A000E66E06D941E90A0EE66EE66AE66AE66A82
:1015B0003DEC00F044E944E9E7CFD9FF1200D9CF70
:1015C000E6FFE1CFD9FF83E943E8015001019D6FB8
:1015D0009E6B040E9F6F9F519DC19BF19EC19CF11C
:1015E00006E00101D8909C339B33E804FBE1010144
:1015F0009B51036E0F0E0114046E710EF66E3E0EBB
:10160000F76E0800F5500010056E3EDF0009FDE1A1
:101610000550E66E89DF41E937DF0009FDE1838E81
:10162000839C9590959295949596640EE66EE66AE5
:10163000E66AE66A3DEC00F044E90350E66EB8D88D
:1016400041E9900EE66E010EE66EE66AE66A3DEC52
:1016500000F044E90450E66EABD841E90A0EE66EAC
:10166000E66AE66AE66A3DEC00F044E944E9E7CF61
:10167000D9FF1200D9CFE6FFE1CFD9FF83E942E8D5
:10168000015001019D6F9E6B040E9F6F9F519DC184
:101690009BF19EC19CF106E00101D8909C339B33E5
:1016A000E804FBE101019B51036E0F0E0114046E6F
:1016B000700EF66E3E0EF76E0800F5500010E66EE6
:1016C00033DF41E9E1DE0009FDE1838E839C9590E3
:1016D000959295949596640EE66EE66AE66AE66AD9
:1016E0003DEC00F044E90350E66E62D841E9900E0B
:1016F000E66E010EE66EE66AE66A3DEC00F044E94D
:101700000450E66E55D841E90A0EE66EE66AE66ACE
:10171000E66A3DEC00F044E943E9E7CFD9FF120067
:10172000D9CFE6FFE1CFD9FF81E941E8016A015055
:1017300001019B6F9C6B140ED8909CBF03D09B5DE6
:10174000000E9C5922E20150EA6A000FE96E0F0E6A
:10175000EA22200EEF6E0150EA6A140FE96E0F0EB6
:10176000EA22200EEF6E0150EA6A280FE96E0F0E92
:10177000EA22200EEF6E0150EA6A3C0FE96E0F0E6E
:10178000EA22200EEF6E012AD2D77EDE0009FDE1AB
:101790006A0EF66E3E0EF76E0800F550E66EC4DE79
:1017A00041E972DE0009FDE142E9E7CFD9FF12000D
:1017B000D9CFE6FFE1CFD9FF82E9838A0050F36EEB
:1017C000F350080B02E0838601D083960050F36E3D
:1017D000F350040B02E0838401D083940050F36E35
:1017E000F46AF350020B02E0838201D0839200502E
:1017F000F36EF46AF350010B02E0838001D0839012
:10180000900EE66E010EE66EE66AE66A3DEC00F0CA
:1018100044E9839A41E9E7CFD9FF1200D9CFE6FF27
:10182000E1CFD9FF81E941E8016A838A900EE66E33
:10183000010EE66EE66AE66A3DEC00F044E983508C
:10184000080B01E0010E01019B6F9C6B010E9B19BF
:1018500003E19C5101E1012A01509B6F9C6BD890E0
:101860009B379C379B51016E8350040B01E0010EA6
:101870009B6F9C6B010E9B1903E19C5101E1012AB6
:1018800001509B6F9C6BD8909B379C379B51016E8E
:101890008350020B01E0010E9B6F9C6B010E9B19A4
:1018A00003E19C5101E1012A01509B6F9C6BD89090
:1018B0009B379C379B51016E8350010B9B6F9C6B38
:1018C000010E9B1903E19C5101E1012A839A015009
:1018D00042E9E7CFD9FF1200D9CFE6FFE1CFD9FF28
:1018E00082E943E8026A036A046A710EF66E3E0EEC
:1018F000F76E0800F5500010E66E16DE41E9C4DD13
:101900000009FDE1838C838E958695849582958070
:10191000900EE66E010EE66EE66AE66A3DEC00F0B9
:1019200044E97CDF036E900EE66E010EE66EE66A19
:10193000E66A3DEC00F044E971DF046E03500101FA
:101940009D6F9E6B040E9DC19BF19EC19CF1000A90
:1019500006E00101D8909B379C37E804FBE1045076
:1019600001019F6FA06B9B519F11026E839C839E10
:0A197000025044E9E7CFD9FF12004E
:06197A00D89801D0D888C6
:1019800050E8D9CFE6FFDACFE6FFE1CFD9FFE2CFCB
:10199000DAFF94E9089E07E701AE05D0006C011E4E
:1019A000E86A0122088E81EB0CF080EB0BF00A6AEA
:1019B000096A8E0E0D6E0E6ADEEF0CF00C500B10E5
:1019C0000A10091055E00EBE4DD00CBE0CD00D50C3
:1019D0000E1048E0D89009360A360B360C360D0644
:1019E000D8A00E06F2D70E5031E10D282FE009AE37
:1019F00011D07F0E091402E10AA00CD00A2AE86A6D
:101A00000B220C2207E3D8800C320B320A320D2A4B
:101A10000D281CE00D5026E08AEB00F08BEB01F066
:101A20000C34026E0D30036E0232039E08BE038E2C
:101A3000E552E5CFDAFFE7CFD9FF4EE912007F0E7E
:101A4000036EFF0E026E016E006EF2D77F0E08BEAF
:101A5000FF0E036E02D07F0E036E800E026E016ACF
:101A6000006AE6D708AE04D0800E036E026AF7D78C
:101A7000036A026AF4D7D89801D0D8884EE8D9CF43
:101A8000E6FFDACFE6FFE1CFD9FFE2CFDAFF94E954
:101A9000089E0BE703AE09D0006C011E021E031E58
:101AA000E86A012202220322088E83EB0CF082EB0B
:101AB0000BF081EB0AF080EB09F09E0E0D6E0E6AC2
:101AC000DEEF0CF045E8D9CFE6FFDACFE6FFE1CF55
:101AD000D9FFE2CFDAFF8BE9086AB3EC0DF008B664
:101AE00076EF0DF008AA0AD008BC03D07F0E006E76
:101AF0001BD0800E006E18D0006A16D008B8FCD734
:101B0000870E0360F1D77E0E0364F6D7860E035C62
:101B100004E0D8900232032AF9D708AC03D0026C53
:101B200002AEEAD782EB00F0E552E5CFDAFFE7CF6D
:101B3000D9FF48E912000636073602E30884087E1A
:101B400006E10880076A066A056A046A1200072827
:101B500003E0D88006321200D890063202E10882F3
:101B60001200088612000236033602E3088C087E53
:101B700006E10888036A026A016A006A1200032803
:101B800003E0D88002321200D8900232EAE1088ADB
:101B9000120045E8D9CFE6FFDACFE6FFE1CFD9FF63
:101BA000E2CFDAFF8BE9086AB3EC0DF008B6DDEF9F
:101BB0000DF008AA0FD008BC07D07F0E036EFF0EF1
:101BC000026E016E006E2DD0800E036E01D0036A8E
:101BD000000EF6D708B8FBD7076A9F0E0360EBD755
:101BE0007E0E0364F4D79E0E035C07E0D8900232A9
:101BF000013200320732032AF6D708AC0AD0076C4C
:101C0000001E011E021EE86A00220122022202AE0C
:101C1000DED782EB03F081EB02F080EB01F087EB83
:101C200000F0E552E5CFDAFFE7CFD9FF45E9120032
:101C300043E8D9CFE6FFDACFE6FFE1CFD9FFE2CF25
:101C4000DAFF89E9066A1200F3DF068003D0F0DFCD
:101C500001D00682056A046A100EE76ED89002363B
:101C60000336043605360050045C0150055805E380
:101C70000050045E0150055A022AE72EF0D706B242
:101C8000120006B006D084EB00F085EB01F006A050
:101C900004D082EB00F083EB01F0E552E5CFDAFFF0
:101CA000E7CFD9FF45E9120045E8D9CFE6FFDACF03
:101CB000E6FFE1CFD9FFE2CFDAFF8FE90C6A12002D
:101CC000F3DF0C8003D0F0DF01D00C820B6A0A6ACC
:101CD000096A086A200EE76ED89004360536063683
:101CE0000736083609360A360B360050085C0150B4
:101CF000095802500A5803500B5809E30050085E77
:101D00000150095A02500A5A03500B5A042AE72E6E
:101D1000E4D70CB212000CB00AD088EB00F089EBCB
:101D200001F08AEB02F08BEB03F00CA008D084EBFF
:101D300000F085EB01F086EB02F087EB03F0E55253
:101D4000E5CFDAFFE7CFD9FF49E912004AE8D9CF5A
:101D5000E6FFDACFE6FFE1CFD9FFE2CFDAFF94E981
:101D6000086A9BEC0DF0B3EC0DF008B61FEF0DF018
:101D700008A205D008BA1FEF0DF026EF0DF008BA43
:101D800032EF0DF008A005D008B81FEF0DF032EFCC
:101D90000DF008B826EF0DF00E6A7F0E07240D6EC9
:101DA000E86A0E2203500D5EE86A0E5A1A0E0F6E94
:101DB000076A096A0A6A0B6A0C6A0050045E0150DD
:101DC000055A0250065A000E075A09E70050042629
:101DD0000150052202500622000E072201D0098A76
:101DE000D8900436053606360736D89009360A36B6
:101DF0000B360C360F2EE1D7065005100410D8A470
:101E0000098ADEEF0CF043E8D9CFE6FFDACFE6FF30
:101E1000E1CFD9FFE2CFDAFF89E9066A1200F3DFEA
:101E2000068001D0F0DF01AE1CEF0FF0006C011E48
:101E3000E86A012206B0067E03AE24EF0FF0026CC2
:101E4000031EE86A0322067E29EC0EF003BE46EF6D
:101E50000FF006AE08D0026C031EE86A0322046C81
:101E6000051EE86A052206B006D084EB00F085EB7B
:101E700001F006A004D082EB00F083EB01F0E55204
:101E8000E5CFDAFFE7CFD9FF45E9000C06BE2BEF1F
:101E90000FF0E9DFFF0C44E8D9CFE6FFDACFE6FF29
:101EA000E1CFD9FFE2CFDAFF8AE980EB04F081EBE2
:101EB00005F082EB06F002500402F450016EF3507C
:101EC000006E0350076E0502F450036EF350026E6D
:101ED00007500402F3500126F4500222E86A03225C
:101EE00006500502F3500126F4500222E86A03224C
:101EF000E552E5CFDAFFE7CFD9FF46E9000C44E829
:101F0000D9CFE6FFDACFE6FFE1CFD9FFE2CFDAFFA4
:101F10008EE980EB08F081EB09F082EB0AF083EBAD
:101F20000BF004500802F350006EF450016E0450A0
:101F30000902F3500126000EF420026E04500A023A
:101F4000F3500226000EF420036E04500B02F350EF
:101F5000032605500802F3500126F4500222000E19
:101F6000032205500902F3500226F45003220550C3
:101F70000A02F350032606500802F3500226F450DA
:101F8000032206500902F350032607500802F350BB
:101F90000326E552E5CFDAFFE7CFD9FF48E9000C89
:101FA0004AE8D9CFE6FFDACFE6FFE1CFD9FFE2CFAB
:101FB000DAFF94E9086A9BEC0DF0B3EC0DF008B67B
:101FC0001FEF0DF008A205D008B81FEF0DF026EFA7
:101FD0000DF008AA05D008B01FEF0DF026EF0DF0A8
:101FE00008B002D008A802D032EF0DF00E6A0350FC
:101FF00007240D6EE86A0E227E0E0D5EE86A0E5A08
:10200000096A0A6A0B6A0C6A02500602F4500C6EE6
:10201000F3500B6E01500602F3500A26F4500B22C7
:10202000000E0C2202500502F3500A26F4500B2237
:10203000000E0C2200500602F3500926F4500A222A
:10204000000E0B220C2201500502F3500926F45019
:102050000A22000E0B220C2202500402F350092621
:10206000F4500A22000E0B220C2200500502F450FC
:102070000926000E0A220B220C2201500402F45001
:0E2080000926000E0A220B220C22DEEF0CF0C5
:02208E00D9CFA8
:10209000E6FFE1CFD9FF81E942E8026A025001017F
:1020A0009B6F9C6B040ED8909CBF03D09B5D000E71
:1020B0009C5922E2016A01509B6F9C6B140ED890D0
:1020C0009CBF03D09B5D000E9C5914E20250150D7D
:1020D000F3CF9BF1F4CF9CF1000E9B27000E9C23C5
:1020E0000150EA6A9B25E96E9C51EA22200EEF6EB0
:1020F000012AE1D7022AD2D70001586B596B5A6BDB
:102100005B6B010E5C6F7B0EE66E3C0EE66EA5D837
:1021100042E9A8EC08F000090AE0200EE66E030E82
:10212000E66EE66AE66A3DEC00F044E9F2D790EC30
:102130000BF00F01555101019B6F9C6B9B07000E2B
:102140009C5B9BC15BF0730EE66E3C0EE66E85D821
:1021500042E90001010EE76F43E9E7CFD9FF120022
:10216000D9CFE6FFE1CFD9FF81E941E8030E016E47
:10217000015001019B6F9C6B9C3532E29B51000822
:10218000000E9C552DE2140EE66EE66A01509B6F20
:102190009C6B9B07000E9C5B150E9C03F3CF9CF180
:1021A0009B03F3CF9BF1F4509C27000E9B27000E5E
:1021B0009C239BC1E6FF9CC1E6FF0150150DF3CFA8
:1021C0009DF1F4CF9EF1000E9D27000E9E239DC130
:1021D000E6FF9EC1E6FFDBEC1DF046E90106C8D72D
:1021E000140EE66EE66A5E0EE66E3C0EE66EE66A7B
:1021F000000EE66E000EE66E09EC1EF047E90001E7
:10220000586B596B42E9E7CFD9FF1200D9CFE6FFEF
:10221000E1CFD9FF83E9015001019B6F9C6B140E44
:10222000D8909CBF03D09B5D000E9C5903E20150E7
:102230000001586F005001019B6F9C6B040ED890F9
:102240009CBF03D09B5D000E9C5903E2005000012F
:10225000596F41E9E7CFD9FF1200D9CFE6FFE1CFAF
:10226000D9FF83E956E8036A046A00EBE6FF01EB55
:10227000E6FFE66AD950050FE66EDACFE6FFC2EC5C
:102280001DF045E90550046E045001019B6F9C6BE5
:102290009B519C1159E00450E66E00015951150DF7
:1022A000F3CF9BF1F4CF9CF1000E01019B27000EB0
:1022B0009C23000158510101EA6A9B25E96E9C515B
:1022C000EA22E552E750EF6E0001582B032A5851DD
:1022D00001019B6F9C6B9C3506E29B511308000E1D
:1022E0009C5501E23DDF0101D950050F9B6FDACF0C
:1022F0009CF10350EA6A9B25E96EDA50EA22EF501E
:10230000046E0A0EF36EF46AF350041801E1F450FF
:1023100002E0000E01D0010E9D6F9E6B0450A16F74
:10232000A26BA151A21102E0000E01D0010E9F6F1D
:10233000A06B9D519F119B6F9E51A0119C6F9B5153
:102340009C11A2E0046AA0D757E9E7CFD9FF120099
:10235000D9CFE6FFE1CFD9FF81E942E8026A025016
:1023600001019B6F9C6B040ED8909CBF03D09B5DBA
:10237000000E9C5922E2016A01509B6F9C6B140E67
:10238000D8909CBF03D09B5D000E9C5914E2025074
:10239000150DF3CF9BF1F4CF9CF1000E9B27000E9F
:1023A0009C230150EA6A9B25E96E9C51EA22200E8B
:1023B000EF6E012AE1D7022AD2D70001586B596B80
:1023C00043E9E7CFD9FF1200D9CFE6FFE1CFD9FF2C
:1023D00083E944E8066A056A80EB03F081EB04F0C8
:1023E000100E035C270E045806E3052A100E035E48
:1023F000270E045AF5D7055001019B6F9C6B9C3545
:1024000022E29B510008000E9C551DE2300E05246F
:10241000E66E00015951150DF3CF9BF1F4CF9CF1FD
:10242000000E01019B27000E9C2300015851582BE0
:102430000101EA6A9B25E96E9C51EA22E552E750C8
:10244000EF6E010E066E056AE80E035C030E04587B
:1024500006E3052AE80E035E030E045AF5D705507D
:1024600001019B6F9C6B9C3522E29B510008000E82
:102470009C551DE2300E0524E66E00015951150DE4
:10248000F3CF9BF1F4CF9CF1000E01019B27000ECE
:102490009C2300015851582B0101EA6A9B25E96EE3
:1024A0009C51EA22E552E750EF6E010E066E056A76
:1024B000640E035C000E045806E3052A640E035EF6
:1024C000000E045AF5D7055001019F6FA06BA0358F
:1024D00004E29F510008000EA055D8709D6B9E6BC2
:1024E0009D370650A36FA46BA43504E2A3510008E6
:1024F000000EA455D870A16BA26BA1379D51A111FC
:102500009B6F9E51A2119C6F9B519C111DE0300E40
:102510000524E66E00015951150DF3CF9BF1F4CF60
:102520009CF1000E01019B27000E9C2300015851D5
:10253000582B0101EA6A9B25E96E9C51EA22E5527B
:10254000E750EF6E010E066E056A0A0E035C000E80
:10255000045806E3052A0A0E035E000E045AF5D756
:10256000055001019F6FA06BA03504E29F51000848
:10257000000EA055D8709D6B9E6B9D370650A36FC3
:10258000A46BA43504E2A3510008000EA455D87032
:10259000A16BA26BA1379D51A1119B6F9E51A211FE
:1025A0009C6F9B519C111DE0300E0524E66E0001CE
:1025B0005951150DF3CF9BF1F4CF9CF1000E0101A1
:1025C0009B27000E9C2300015851582B0101EA6AF9
:1025D0009B25E96E9C51EA22E552E750EF6E010E11
:1025E000066E300E0324E66E00015951150DF3CF2F
:1025F0009BF1F4CF9CF1000E01019B27000E9C2360
:1026000000015851582B0101EA6A9B25E96E9C5143
:10261000EA22E552E750EF6E45E9E7CFD9FF120015
:10262000D9CFE6FFE1CFD9FF81E942E8026A025043
:1026300001019B6F9C6B040ED8909CBF03D09B5DE7
:10264000000E9C594AE2016A01509B6F9C6B140E6C
:10265000D8909CBF03D09B5D000E9C593CE20001CA
:102660005B5101019F6FA06B0250F36EF46AF3504F
:102670009F5D9D6FF450A0599E6F150E9E03F3CF82
:102680009EF19D03F3CF9DF1F4509E27000E9D27F0
:10269000000E9E23015000015A250101EA6AEA3624
:1026A0009D25E96E9E51EA22EF50E66E0250140D10
:1026B000F3CF9BF1F4CF9CF1000E9B270F0E9C23D0
:1026C0000150EA6A9B25E96E9C51EA22E552E750E7
:1026D000EF6E012AB9D7022AAAD79CEC09F043E988
:0626E000E7CFD9FF120054
:0A26E600D9CFE6FFE1CFD9FF81E96B
:1026F0007FE845E8B0EC10F0920EE66E3C0EE66E18
:102700002DEC11F042E9446A445001019B6F9C6B2F
:10271000400ED8909CBF03D09B5D000E9C590FE2E9
:10272000D950010F9B6FDACF9CF14450EA6A9B2588
:10273000E96EDA50EA22AA0EEF6E442AE5D73F6A24
:10274000446A445001019B6F9C6B040ED8909CBF5F
:1027500003D09B5D000E9C5923E244509B6F9C6B01
:102760009B519C1102E1010E01D0AA0E406E400E59
:10277000E66ED950010FE66EDACFE6FF4450030D46
:10278000F3CFE9FFF4CFEAFF420EE926010EEA2279
:10279000EECFE6FFEECFE6FFA2D845E9442AD1D737
:1027A000446A44509B6F9C6B400ED8909CBF03D0F2
:1027B0009B5D000E9C590EE2D950010F9B6FDACF42
:1027C0009CF14450EA6A9B25E96EDA50EA22EF6AEE
:1027D000442AE7D7100E016E020E026EA00E036EA1
:1027E000A80E046E3C0EE66ED950010FE66EDACFED
:1027F000E6FF4AEC08F043E9F350416EF450426EB4
:10280000010142EB9BF19C6B9B51436E43503E6E2A
:10281000FF0E4114436E43503F6E010E406E400E5A
:10282000E66ED950010FE66EDACFE6FF42C1E6FF51
:1028300043C1E6FF54D845E9010EE66EB4D941E93B
:102840007FE946E9E7CFD9FF1200D9CFE6FFE1CF14
:10285000D9FF86E943E881EB07F082EB08F0FF0E31
:102860000314A96EA69EA69C066A065001019B6FE2
:102870009C6B00500101D8909CBF03D09B5D000E63
:102880009C5911E2A6800000A850E66E01EBE9FF1A
:1028900002EBEAFF012A000E0222E552E750EF6E3A
:1028A000A92A062AE2D7010E00D044E9E7CFD9FFD2
:1028B0001200D9CFE6FFE1CFD9FF83E941E8036AEF
:1028C000FF0E0014A96EA69EA69CA6800000A8502C
:1028D000036E035000D042E9E7CFD9FF1200D9CFF1
:1028E000E6FFE1CFD9FF86E942E8076AFF0E03144D
:1028F000A96EA69EA69CA684066A065001019B6F3F
:102900009C6B0050D8909CBF03D09B5D000E9C59DF
:102910004CE201EBE9FF02EBEAFF012A000E022282
:10292000EF50A86EA198F250800B01E0010E9B6F52
:102930009C6B9B519C1102E0020E076EF250400B03
:1029400001E0010E9B6F9C6B9B519C1101E0072ADB
:10295000F29CF29E550EA76EAA0EA76EA682075095
:102960009B6F9C6B020ED8909CBF03D09B5D000EAA
:102970009C5903E3F28E020E075E07509B6F9C6B1F
:102980009C3506E29B510008000E9C5501E2F28C3A
:10299000076AA150100B01E0010E9B6F9C6B9B51CD
:1029A0009C11F7E0A92A062AA8D7010E43E9E7CF30
:1029B000D9FF1200D9CFE6FFE1CFD9FF81E941E885
:1029C000860EE66E3C0EE66E2DEC11F042E910EC40
:1029D00013F0016A015001019B6F9C6B040ED890AB
:1029E0009CBF03D09B5D000E9C5901E37FD001503A
:1029F000400DF3CF9BF1F4CF9CF10150030DF3CFC9
:102A0000E9FFF4CFEAFF420EE926010EEA229BC15C
:102A1000EEFF9CC1EDFF0150030DF3CFE9FFF4CFB2
:102A2000EAFF420EE926010EEA22EECF9BF1EFCF3C
:102A30009CF13F0E9B27000E9C239BC1E6FF9CC18F
:102A4000E6FF37DF42E9E66E0150030DF3CFE9FF01
:102A5000F4CFEAFF420EE926010EEA22020EE92631
:102A6000000EEA22E552E750EF6E0150030DF3CF5E
:102A7000E9FFF4CFEAFF420EE926010EEA22020E38
:102A8000E926000EEA22EF5001019F6FA06BAA0E0B
:102A90009F1901E1A05102E0000E01D0010E9D6FCF
:102AA0009E6B0150030DF3CFE9FFF4CFEAFF420E16
:102AB000E926010EEA22020EE926000EEA22EF5074
:102AC000A36FA46BFF0EA31901E1A45102E0000E55
:102AD00001D0010EA16FA26B9D51A1119B6F9E5160
:102AE000A2119C6F9B519C11012A74D742E9E7CF38
:102AF000D9FF1200D9CFE6FFE1CFD9FF82E955E82F
:102B0000150EE66ED950020FE66EDACFE6FF0050E2
:102B1000030DF3CFE9FFF4CFEAFF420EE926010EE1
:102B2000EA22EECFE6FFEECFE6FF8FDE45E9025068
:102B30000001656F666B0350606F0450616F626BDC
:102B40000650CF6FD06B0750CD6FCE6B0850C96F5A
:102B5000CA6B0950CB6FCC6B0A50EC6FED6B0B500E
:102B6000F06FF16B0C50EE6FEF6B0D50F46FF56B77
:102B70000E50F26FF36B0F50F86FF96B1050F66F49
:102B8000F76B11500001FD6F1250FC6F1350FB6F7B
:102B90001450FE6F1550FA6F1650FF6F010E56E974
:102BA000E7CFD9FF1200D9CFE6FFE1CFD9FF82E905
:102BB00055E800016551026E6051036E6151046E6B
:102BC000056ACF51066ECD51076EC951086ECB51C3
:102BD000096EEC510A6EF0510B6EEE510C6EF45111
:102BE0000D6EF2510E6EF8510F6EF651106E00011F
:102BF000FD51116EFC51126EFB51136EFE51146E9D
:102C0000FA51156EFF51166E150EE66ED950020F71
:102C1000E66EDACFE6FF0050030DF3CFE9FFF4CF05
:102C2000EAFF420EE926010EEA22EECFE6FFEECFE2
:102C3000E6FF55DE45E9150E026E020E036EE66EE6
:102C4000D950020FE66EDACFE6FF0050030DF3CF46
:102C5000E9FFF4CFEAFF420EE926010EEA22EECFA9
:102C60009BF1EFCF9CF13E0E01019B27000E9C23B0
:102C70009BC1E6FF9CC1E6FF32DE45E956E9E7CF9E
:042C8000D9FF120066
:0C2C8400DACFE4FFE2CFDAFFE9CFE4FF93
:102C9000EACFE4FFF6C1E4FFF7C1E4FFF8C1E4FFC7
:102CA000F9C1E4FFF6CFE4FFF7CFE4FFF5CFE4FF8F
:102CB000F3CFE4FFF4CFE4FFFACFE4FF01EE9BF0A3
:102CC0002A0EE80403E3EECFE4FFFBD7E652D9CFA8
:102CD000E6FFE1CFD9FF81E941E8F250040B01E0C2
:102CE000010E0F01586F596B5851591157E0F2946A
:102CF000016A01500F01586F596B020ED89059BFED
:102D000003D0585D000E595948E20150040DF3CF2D
:102D1000E9FFF4CFEAFFE40EE926010EEA22EECF46
:102D200058FFEDCF59FFEE2A000EEF220150040D9F
:102D3000F3CFE9FFF4CFEAFFE40EE926010EEA2221
:102D4000EECF5AFFEECF5BFFEECF5CFFEFCF5DFF24
:102D500058515C5D59515D591EE2000167510F01E8
:102D6000586F596B010E58190AE1595108E1015089
:102D7000E66EE66AF10EE66ECCEC02F043E9015035
:102D8000040DF3CFE9FFF4CFEAFFE40EE926010ECC
:102D9000EA22EE6AED6A012AACD7F28A9E50010B54
:102DA000586F596B5851591157E09E90016A015064
:102DB0000F01586F596B020ED89059BF03D0585D60
:102DC000000E595948E20150040DF3CFE9FFF4CF4A
:102DD000EAFFDC0EE926010EEA22EECF58FFEDCF26
:102DE00059FFEE2A000EEF220150040DF3CFE9FF48
:102DF000F4CFEAFFDC0EE926010EEA22EECF5AFFFD
:102E0000EECF5BFFEECF5CFFEFCF5DFF58515C5D17
:102E100059515D591EE2000167510F01586F596BFE
:102E2000010E58190AE1595108E10150E66EE66AAF
:102E3000F00EE66ECCEC02F043E90150040DF3CF46
:102E4000E9FFF4CFEAFFDC0EE926010EEA22EE6A82
:102E5000ED6A012AACD79D80F250020B01E0010E11
:102E6000586F596B5851591102E0F292F288F28E64
:102E700042E9E7CFD9FFE55201EEC4F02A0EE8049B
:102E800003E3E5CFEDFFFBD7E5CFFAFFE5CFF4FF96
:102E9000E5CFF3FFE5CFF5FFE5CFF7FFE5CFF6FF91
:102EA000E5CFF9F1E5CFF8F1E5CFF7F1E5CFF6F1B0
:102EB000E5CFEAFFE5CFE9FFE5CFDAFF1100D8CF94
:102EC000E4FFE0CFE4FFE46EDACFE4FFE2CFDAFF25
:102ED000E9CFE4FFEACFE4FFF3CFE4FFF4CFE4FF70
:102EE000E652D9CFE6FFE1CFD9FF81E943E89E5012
:102EF000400B01E0010E0F015E6F5F6B5E515F11D1
:102F000013E09E9CC350016E026AE66A010EE66EF3
:102F1000C450E66EE66A4BEC0FF0FE0EE35001265D
:102F200041E9E55002229D8CF28C44E9E7CFD9FFBC
:102F3000E552E5CFF4FFE5CFF3FFE5CFEAFFE5CFBC
:102F4000E9FFE5CFDAFFE550E5CFE0FFE5CFD8FFB9
:102F50001000D9CFE6FFE1CFD9FF81E941E8016A4E
:102F600065EC02F056EC05F0F0EC05F077EC03F0C0
:102F700047EC10F010EC13F0800EE66E960EE66E45
:102F8000980EE66EE66A3DEC00F044E9B0EC10F015
:102F9000D80EE66E3C0EE66E2DEC11F042E910EC18
:102FA00013F0400EE66E4B0EE66E4C0EE66EE66AD1
:102FB0003DEC00F044E9B0EC10F0CF0EE66E3C0EB4
:102FC000E66E2DEC11F042E910EC13F0400EE66EC7
:102FD0004B0EE66E4C0EE66EE66A3DEC00F044E900
:102FE000D2EC1CF010EC13F0400EE66E4B0EE66EC9
:102FF0004C0EE66EE66A3DEC00F044E9016A0150D1
:1030000001019B6F9C6B040ED8909CBF03D09B5D0D
:10301000000E9C5959E20150030DF3CFE9FFF4CFA4
:10302000EAFF420EE926010EEA22020EE926000E10
:10303000EA22EF50F36EF46A020EF31801E1F45045
:1030400021E0010EF3183EE1F4503CE1B0EC10F049
:10305000C20EE66E3C0EE66E2DEC11F042E9015018
:10306000E66EE66AE4EC11F042E910EC13F0400E73
:10307000E66E4B0EE66E4C0EE66EE66A3DEC00F038
:1030800044E920D0B0EC10F0B50EE66E3C0EE66ED2
:103090002DEC11F042E90150E66EE66AE4EC11F025
:1030A00042E910EC13F0400EE66E4B0EE66E4C0E4D
:1030B000E66EE66A3DEC00F044E90150E66E7AEC1B
:1030C00015F041E9012A9BD7400EE66E4B0EE66EE5
:1030D0004C0EE66EE66A3DEC00F044E9A8EC11F017
:1030E00041EC04F000016051F36EF46A010EF31834
:1030F00001E1F4500BE0FE0EF318F2E1F450F0E1C0
:10310000010EE66E0FEC00F041E9EAD7D0EC1BF0BF
:02311000E7D7FF
:0E311200D9CFE6FFE1CFD9FF81E941E8010105
:103120008E6B8F6B906B916B926B016A01500101FA
:103130009B6F9C6B400ED8909CBF03D09B5D000E94
:103140009C5909E20150EA6A4E0FE96E010EEA222B
:10315000EF6A012AEBD742E9E7CFD9FF1200949832
:103160009496828882868FC1E6FF90C1E6FF91C166
:10317000E6FF92C1E6FF3DEC00F044E982988FC182
:10318000E6FF90C1E6FF91C1E6FF92C1E6FF3DEC8C
:1031900000F044E982961200949882868FC1E6FF7F
:1031A00090C1E6FF91C1E6FF92C1E6FF3DEC00F061
:1031B00044E982888FC1E6FF90C1E6FF91C1E6FF36
:1031C00092C1E6FF3DEC00F044E91200D9CFE6FFE2
:1031D000E1CFD9FF82E942E8026A9488036A03508A
:1031E00001019B6F9C6B080ED8909CBF03D09B5D28
:1031F000000E9C592DE282868FC1E6FF90C1E6FF4A
:1032000091C1E6FF92C1E6FF3DEC00F044E9825037
:10321000100B01E0010E01019B6F9C6B9B519C11F7
:1032200001E0022A02509B6F9C6BD8909B379C3721
:103230009B51026E82968FC1E6FF90C1E6FF91C15D
:10324000E6FF92C1E6FF3DEC00F044E9032AC7D750
:103250009498010EF36EF46AF350001804E1F450F0
:1032600002E1829801D0828882868FC1E6FF90C1F8
:10327000E6FF91C1E6FF92C1E6FF3DEC00F044E9B4
:1032800082968FC1E6FF90C1E6FF91C1E6FF92C131
:10329000E6FF3DEC00F044E9025043E9E7CFD9FFF7
:1032A0001200D9CFE6FFE1CFD9FF82E942E8949836
:1032B000026A025001019B6F9C6B080ED8909CBF64
:1032C00003D09B5D000E9C5920E282960050F36E65
:1032D000F46AF350010B02E0828801D0829800501A
:1032E0009B6F9C6BD8909C339B339B51006E828666
:1032F0008FC1E6FF90C1E6FF91C1E6FF92C1E6FFF4
:103300003DEC00F044E9022AD4D7948882868FC12C
:10331000E6FF90C1E6FF91C1E6FF92C1E6FF3DECFA
:1033200000F044E98250100B01E0010E01019B6F97
:103330009C6B9B519C1102E0036A02D0010E036E4C
:1033400082968FC1E6FF90C1E6FF91C1E6FF92C170
:10335000E6FF3DEC00F044E9035043E9E7CFD9FF35
:02336000120059
:0E336200D9CFE6FFE1CFD9FF8BE946E80F6A2D
:10337000106A03EB8FF104EB90F105EB91F106EB92
:1033800092F10750F36EF46A020EF31801E1F45063
:103390004EE0010EF31801E0A2D0F45001E09FD0FE
:1033A000AFEC18F0700E010100149C6BE8349C35F2
:1033B0009B6F9C6B01E39C819B510C6E02500C1027
:1033C0000C6EFF0E00140D6E0C50E66E51EC19F0F1
:1033D00041E90B6E0B5001019B6F9C6B9B519C1143
:1033E00003E10F6AF00E106E0E50E66E51EC19F00C
:1033F00041E90B6E0B5001019B6F9C6B9B519C1123
:1034000003E10F6AF00E106EAFEC18F0010E0C1015
:103410000C6E0C50E66E51EC19F041E90B6E0B503E
:1034200001019B6F9C6B9B519C1152E14ED0AFEC04
:1034300018F002500E6E0E50E66E51EC19F041E994
:103440000B6E0B5001019B6F9C6B9B519C1103E118
:103450000F6AF00E106E01EB9BF19C6B9B510D6E91
:1034600000EBE6FF51EC19F041E90B6E0B50010146
:103470009B6F9C6B9B519C1103E10F6AF00E106EC9
:10348000FF0E00140D6E00EBE6FF51EC19F041E960
:103490000B6E0B5001019B6F9C6B9B519C1103E1C8
:1034A0000F6AF00E106EAFEC18F0010E0C100C6EDF
:1034B0000C50E66E51EC19F041E90B6E0B50010116
:1034C0009B6F9C6B9B519C1103E10F6AF00E106E79
:1034D000E66AE6EC18F041E90F12CCEC18F00FEBBD
:1034E000F3FF10EBF4FF47E9E7CFD9FF1200D9CF84
:1034F000E6FFE1CFD9FF85E945E8086A096A46E9B0
:10350000E7CFD9FF1200D9CFE6FFE1CFD9FF88E995
:1035100041E8086A085001019B6F9C6B3F0ED890F0
:103520009CBF03D09B5D000E9C5902E2082AF2D793
:1035300042E9E7CFD9FF1200D9CFE6FFE1CFD9FFAB
:1035400088E944E8096A095001019B6F9C6B0850A7
:10355000D8909CBF03D09B5D000E9C5910E20A6A74
:103560000A509B6F9C6B0B50D8909CBF03D09B5D07
:10357000000E9C5902E20A2AF3D7092AE4D745E94A
:10358000E7CFD9FF1200D9CFE6FFE1CFD9FF86E917
:0835900041E9E7CFD9FF120069
:083598000001FA2BFA510101B8
:1035A0009B6F9C6B3C0E9B1901E0F9D09C5101E094
:1035B000F6D00001FB2BFA6BFB5101019B6F9C6B5A
:1035C0003C0E9B1901E0EBD09C5101E0E8D00001DA
:1035D000FC2BFB6BFC5101019B6F9C6B180E9B1924
:1035E00001E0DDD09C5101E0DAD00001FD2BFC6B45
:1035F000FD510101A56FA66B1D0EA5190CE1A65189
:103600000AE10001FE510101A76FA86B020EA71984
:1036100001E1A85102E0000E01D0010EA36FA46BDE
:10362000A351A41112E0040EE66EE66A0001FF51F8
:10363000E66EE66A12EC0FF0E552E5CFAAF1E7CFAD
:10364000A9F10101A951AA1102E1000E01D0010E58
:10365000A16FA26BA151A2111EE10001FD51010158
:10366000AD6FAE6B1E0EAD190CE1AE510AE100015B
:10367000FE510101AF6FB06B020EAF1901E1B05105
:1036800002E0000E01D0010EAB6FAC6BAB51AC1180
:1036900002E1000E01D0010E9F6FA06B9F51A0119F
:1036A00054E10001FD510101B36FB46B1F0EB3195A
:1036B00042E1B45140E10001FE510101BB6FBC6B1E
:1036C000040EBB1901E1BC510CE00001FE510101E7
:1036D000BD6FBE6B060EBD1901E1BE5102E0000ECA
:1036E00001D0010EB96FBA6BB951BA110CE10001EA
:1036F000FE510101BF6FC06B090EBF1901E1C0513E
:1037000002E0000E01D0010EB76FB86BB751B811CF
:103710000CE10001FE510101C16FC26B0B0EC1191A
:1037200001E1C25102E0000E01D0010EB56FB66B8F
:10373000B551B61102E1000E01D0010EB16FB26BAE
:10374000B151B21102E1000E01D0010E9D6F9E6BCE
:103750009D519E110CE10001FD510101C36FC46B2D
:10376000200EC31901E1C45102E0000E01D0010E88
:103770009B6F9C6B9B519C1104E00001FE2B010E82
:10378000FD6F0001FE5101019B6F9C6B0D0E9B199B
:1037900006E19C5104E10001FF2B010EFE6F1200B7
:1037A000D9CFE6FFE1CFD9FF81E942E800015951C5
:1037B000016E5851026EE66AE66A06EC11F042E9C3
:1037C000320EE66E3D0EE66E2DEC11F042E9000180
:1037D000FC51E66EE66AE4EC11F042E92F0EE66E6B
:1037E0003D0EE66E2DEC11F042E90001FB51E66E54
:1037F000E66AE4EC11F042E92F0EE66E3D0EE66E4D
:103800002DEC11F042E90001FA51E66EE66AE4ECB3
:1038100011F042E92A0EE66E3D0EE66E2DEC11F037
:1038200042E9E66A0E0EE66E06EC11F042E9E80E99
:10383000E66E030EE66EE66AE66AD1C0E6FFD2C027
:10384000E6FFD3C0E6FFD4C0E6FF60EC0EF0E55221
:10385000E5CF9EF1E5CF9DF1E5CF9CF1E7CF9BF160
:103860009BC1E6FF9CC1E6FFE4EC11F042E9250EA6
:10387000E66E3D0EE66E2DEC11F042E90150E66E6B
:103880000250E66E06EC11F042E943E9E7CFD9FFBA
:1038900012001200190EE66E3D0EE66E2DEC11F0D0
:1038A00042E90A0EE66EE66AC9C0E6FFCAC0E6FF54
:1038B00024EC0EF0E4EC11F042E912000D0EE66E7D
:1038C0003D0EE66E2DEC11F042E90A0EE66EE66A58
:1038D000CBC0E6FFCCC0E6FF24EC0EF0E4EC11F028
:1038E00042E91200010EE66E3D0EE66E2DEC11F07F
:1038F00042E90A0EE66EE66ACDC0E6FFCEC0E6FFFC
:1039000024EC0EF0E4EC11F042E91200020E00018A
:10391000611901E1625109E0010E611901E1625191
:1039200004E0615106E1625104E1612B000E622363
:103930001200EF0EE66E0FEC00F041E912001200EB
:10394000D9CFE6FFE1CFD9FF81E942E8000161511B
:10395000621143E9E7CFD9FF1200A8EC11F0F50E90
:10396000E66E3C0EE66E2DEC11F042E910EC13F021
:1039700046EC02F0010EE66E0FEC00F041E9120099
:10398000A8EC11F0E90EE66E3C0EE66E2DEC11F09F
:1039900042E965C0E6FF66C0E6FFE4EC11F042E9EB
:0439A00010EF13F021
:0C39A400D9CFE6FFE1CFD9FF81E949E867
:1039B0000101406B016A015001019B6F9C6B040E79
:1039C000D8909CBF03D09B5D000E9C595EE20150D5
:1039D000400DF3CF9BF1F4CF9CF1FF0E9B17000E2F
:1039E0009C170150030DF3CFE9FFF4CFEAFF420E1D
:1039F000E926010EEA229BC1EEFF9CC1EDFF0150BA
:103A0000030DF3CFE9FFF4CFEAFF420EE926010EE2
:103A1000EA22EECF9BF1EFCF9CF13F0E9B27000EE9
:103A20009C239BC1E6FF9CC1E6FF59EC14F042E9E0
:103A3000E66E0150030DF3CFE9FFF4CFEAFF420E2B
:103A4000E926010EEA22020EE926000EEA22E552DC
:103A5000E750EF6E0150030DF3CFE9FFF4CFEAFF1B
:103A6000420EE926010EEA22020EE926000EEA22A3
:103A7000EF5001019B6F9C6BAA0E9B1901E19C51B9
:103A800002E00101402B012A96D7010144510101B6
:103A90009B6F9C6B010E9B1901E19C5104E073EC40
:103AA00013F080DF6BD0400EE66E000EE66E010E66
:103AB000E66E42C1E6FF43C1E6FF25EC14F045E99E
:103AC0003C0EE66E000EE66E010EE66E4AEC08F065
:103AD00043E9F350026EF450036E046A056A010173
:103AE0003D5101013DC19CF19B6B9B5104129C51C6
:103AF000051201013E510412000E05120450021875
:103B000006E10550031803E10051416F03D073EC47
:103B100013F048DFB0EC10F0AB0EE66E3C0EE66E34
:103B20002DEC11F042E90101415101019D6F9E6BA5
:103B300001014051F36EF46AF35001019D5D9B6FEA
:103B4000F4509E599C6F9BC1E6FFE66EE4EC11F0C9
:103B500042E9A80EE66E3C0EE66E2DEC11F042E94D
:103B600001014151E66EE66AE4EC11F042E9A10E72
:103B7000E66E3C0EE66E2DEC11F042E94AE9E7CF25
:043B8000D9FF120057
:0C3B8400FB0EE3CFF6FFFC0EE3CFF7FFD3
:103B9000FD0EE3CFF8FFFE0EE3CFE9FFFF0EE3CF0C
:103BA000EAFFE9CFF3FFEACFF4FF0900F5CFEFFF1B
:103BB000EE66FBD71200D9CFE6FFDACFE6FFFA0EAA
:103BC000E3CFD9FFFB0EE3CFDAFFFC0EE3CFE9FF33
:103BD000FD0EE3CFEAFFE9CFF3FFEACFF4FFF80EE3
:103BE000E35003E1F90EE3500BE0F80EE30602E2C6
:103BF000F90EE306DECFEFFFEE66F1D7DD52EFD729
:103C0000FF0EE3CFDAFFE552FF0EE3CFD9FFE55217
:103C10001200FB0EE3CFF6FFFC0EE3CFF7FFFD0E25
:103C2000E3CFF8FFFE0EE3CFE9FFFF0EE3CFEAFF9D
:103C3000E9CFF3FFEACFF4FFF90EE35003E1FA0E08
:103C4000E3500CE0F90EE30602E2FA0EE306090087
:0E3C5000F5CFEFFFEE66F0D70A00EED71200B8
:023C5E00202024
:103C60002020202020202020202020202020202054
:103C70002020004C4344756E690000446973706CE9
:103C800061793A2000004C455345204550524F4D34
:103C90000A00466F726D6174696E67202E2E2E00C9
:103CA0000020467265650A002F0000454550524FBE
:103CB0004D3A200000446576656C4F5320617420B6
:103CC0000000466C61736846532061742000004612
:103CD0006C61736846530000446576656C4F532DE4
:103CE00031362076302E3100004552524F5220207E
:103CF0002020200A00202052454144592020200A3B
:103D0000002B31322C3020202020200A002B20359F
:103D10002C3020202020200A002B20332C33202080
:103D20002020200A004D487A000020202000003A80
:083D3000000055703A2000006C
:083D3800060EF66E000EF76E98
:103D4000000EF86E01010900F550F16F0900F55001
:103D5000F26F03E1F16701D03DD00900F550EC6F3F
:103D60000900F550ED6F0900F550EE6F09000900EC
:103D7000F550E96E0900F550EA6E090009000900E6
:103D8000F550EF6F0900F550F06F09000900F6CF0C
:103D9000F3F1F7CFF4F1F8CFF5F1ECC1F6FFEDC197
:103DA000F7FFEEC1F8FF0101EF5302E1F05307E026
:103DB0000900F550EE6EEF07F8E2F007F9D7F3C10E
:103DC000F6FFF4C1F7FFF5C1F8FF0101F107000E9E
:063DD000F25BBFD71200F8
:0A3DD600FF0EE35000015E6FEE0ED9
:103DE00002D0F20E0000E76EE72EF4EF1EF00C0E8C
:103DF00000015D6FE76AE72EFBEF1EF05D2FFAEF23
:0C3E00001EF000015E2FF1EF1EF012001A
:043E0C00F36AF46AF7
:103E1000FF0EE124E96EFF0EE220EA6EED6607D0A8
:103E20001F0EEF6404D07F0EEF6001D0F32A120062
:103E3000600EF36E00EE00F00F0E01D81200EA6083
:103E400002D0EE6AFCD7F350E9601200EE6AFCD7AC
:103E50001EEE00F02EEE00F0F86A9CEC1EF007EC6F
:0A3E600000F0A9EC17F0FBD71200E8
:063E6A0001020408102013
:053E700040800204087F
:020000040030CA
:0100010008F6
:0100020019E4
:010003001EDE
:010005008179
:01000600C039
:00000001FF
